:020000040000FA
:10000000E0A00020A5030000CD0300008D02000049
:10001000D1030000D3030000D5030000000000005E
:10002000000000000000000000000000D7030000F6
:10003000D903000000000000DB030000DD03000026
:10004000DF030000DF030000DF030000DF03000028
:10005000DF030000DF030000DF030000DF03000018
:10006000DF030000DF030000DF030000DF03000008
:10007000DF030000DF030000DF030000DF030000F8
:10026000DF030000DF030000DF030000FB030000EA
:10027000DF030000DF030000DFF80CD001F0B4F969
:100280000048004741060000E0A00020042071461D
:10029000084202D0EFF3098001E0EFF308807146D5
:1002A000004A1047A10C000010B54FF08044D4F86C
:1002B000100200F00700022803D0354951F8200051
:1002C00001E000F0B8FED4F82012324A01F00F012C
:1002D000491CB0FBF1F02E49083908601044520067
:1002E000B0FBF2F0486010BD2B4810B5016841F436
:1002F000700101604FF0080000F0D3FE4FF0804322
:10030000D3F80802C0F340022AB9D3F8080240F03B
:100310000200C3F80802224820490160016801294F
:10032000FCD1D0F81011C90728D14AF665144460F1
:100330004168C903FCD5C16B41F00401C163C16BC5
:100340000906FCD544604168C903FCD5D0F89C106F
:10035000C0F89C10C16B0906FCD544604168C90314
:10036000FCD5C16B21F00401C163C16B0906FCD54A
:1003700044604168C903FCD50221C162002A05D14D
:10038000D3F8080220F00200C3F8080210BD0000F4
:100390000800002020A1070088ED00E05713EBA51E
:1003A000001004400E484FF0590101604FF0160153
:1003B00001604FF0880101600A4A45F6A5211160ED
:1003C000002101600848804708480047FEE7FEE733
:1003D000FEE7FEE7FEE7FEE7FEE7FEE7FEE7FEE7F5
:1003E0000001004024000040E90200007902000002
:1003F0009A484168491C41607047994B00B59A681A
:100400004FF00110904309D1FFF7F2FF986840F0D8
:100410000100986091480168491C01604FF0081084
:10042000904303D1986840F0080098604FF00210A4
:10043000904303D1986840F0020098604FF010108C
:10044000904303D1986840F010009860186840F419
:100450008010186000BD70B505460C4600F04FFFD7
:10046000804E306840F480703060306840F4007036
:1004700030604FF0080000F066FFF06820F4403074
:1004800040F40030F060A6F5017600F0C8FDB0FB46
:10049000F4F0401E00D50020D6F82C1221F47F4144
:1004A00041EA0020C6F82C0200F0B9FDB0FBF5F0DF
:1004B000401E00D50020D6F82C1221F0FF01014388
:1004C000C6F82C12BDE8704000F015BF70B500F002
:1004D00016FF4FF08044D4F8000240F00100C4F849
:1004E0000002012000F0DDFD0025C4F81052D4F810
:1004F000400240F48030C4F8400244F21A00C4F8CC
:100500004002042000F0CDFD0220C4F81002C00318
:10051000C4F80802C4F81452FFF7C6FE4FF48870FE
:100520002066A06C20F00F00401DA064A06C20F09D
:10053000F00040F05000A064A06C20F4706040F423
:10054000A060A064A06C20F4704040F4A040A064BF
:10055000A06C20F4702040F4A020A064A06C20F4D3
:10056000700040F4A000A064A06C20F0706040F027
:10057000A060A064A06C20F0704040F0A040A06497
:10058000606C20F4702040F4A0206064606C20F463
:10059000700040F4A0006064606C20F0706040F077
:1005A000A0606064606C20F0704040F0A040606427
:1005B000BDE8704000F09FBE10B52B4800F0C3FEB0
:1005C000BDE810404FF4E131284800F01DBF70B580
:1005D00000F065F8002832D025494FF4006008602B
:1005E0004FF4803000F027FC4021880000F0EEFB43
:1005F0004FF420754FF4F07400212B462246084634
:1006000000F0F2FB1B4AA2F51651A1F5964000F04E
:1006100002FC2B46A0222146782000F02DFCA020D1
:1006200000F076FC00F013FC0C4D6C6868688442A6
:10063000FCD06C6810A0214601F008F8F6E770BD08
:1006400010B5FFF743FFFFF7B7FF0F480146FFF76D
:1006500002FFFFF7BCFF002010BD000028000020B3
:1006600000000340040200401000000400000740A6
:1006700010E100E04C730020476574206672616DE4
:1006800065202533640A0000C0CF6A00002805D029
:100690000021491C6429FCD3401EF7E77047F8B5D8
:1006A00054263007816B21F070618163816B21F0EA
:1006B000704181631A4B40220093802311461046FB
:1006C00000F081F8A52117A000F0C0FF194D00240B
:1006D00005EB840035F824108278304600F092FA59
:1006E000641CA52CF4D34FF44051304600F05EFA60
:1006F000054643F20101304600F058FA044602462E
:1007000029460D4800F0A2FF142D01D1102C04D071
:100710000AA000F09BFF0020F8BD0120F8BD0000FA
:100720008D0600004E545F5265674E756D3D253352
:10073000640A000030000020081B00004E543939C4
:1007400031343120696E6974206661696C65642199
:10075000210A000000220123994203D05B00521CB1
:10076000102AF9D35200032100F140209140026881
:100770008A430260704700220123994203D05B0044
:10078000521C102AF9D3510003228A40012300F1A0
:1007900040208B400168914319430160704700225B
:1007A0000123994203D05B00521C102AF9D3510057
:1007B00003228A40012300F140208B4001689143CD
:1007C00019430160704710B52DED028B9DED048A31
:1007D000FF4C84E80F00FFF7CEFFD4E90201FFF7DA
:1007E000DEFF206800F1402081686268114381606B
:1007F000A06800F140208168E26811438160052013
:1008000000F036FA206800F1402081686268914368
:100810008160A06800F140208168E26891438160B6
:10082000052000F025FA206800F140208168626808
:1008300011438160A06800F140208168E2681143A3
:100840008160E44880ED008A0020BDEC028B10BD81
:10085000704710B5DE4CD4E90201FFF7A0FFA06895
:1008600000F140208168E26811438160022000F0BD
:10087000FFF9206800F140208168626811438160BF
:10088000022000F0F5F9A06800F140208168E268DC
:1008900091438160022000F0EBF9206800F14020D4
:1008A0008168626891438160BDE81040022000F0D9
:1008B000DFB910B50A2000F0DBF9C54CD4E902011C
:1008C000FFF76DFFA06800F140208168E268914366
:1008D0008160022000F0CCF9206800F1402081689E
:1008E000626811438160022000F0C2F9A06800F143
:1008F00040208168E26811438160BDE81040022019
:1009000000F0B6B92DE9F041B14F05468846D7E968
:1009100002011646FFF743FF002426E028060028C0
:10092000B86800F140208168FA6801DA114300E0FC
:1009300091438160032000F09BF9386800F140206A
:1009400082687B681A4382606806050E022000F008
:100950008FF9386800F1402081687A68914381609E
:10096000022000F085F9641CE4B2B442D6D3B8F199
:10097000000F29D0BA68104602F140229368F96846
:100980008B439360FFF7E6FE032000F071F93868AF
:1009900000F1402081687A6811438160022000F0F4
:1009A00067F9B86800F140200469F86804403868C5
:1009B00000F1402081687A6891438160022000F054
:1009C00057F98548002C00D00020BDE8F0812DE9C2
:1009D000F0417F4F80460E46D7E902010024FFF721
:1009E000B9FE002522E06400032000F041F93868D8
:1009F00000F1402081687A6811438160D7E90210D4
:100A000001F140210969884301D144F00104022029
:100A100000F02EF9386800F1402081687A6891432F
:100A20008160022000F024F96D1CEDB2B542DAD3EA
:100A3000B8F1000F28D0D7E90201FFF7B0FEB8687F
:100A400000F140208168FA6811438160032000F0C2
:100A50000FF9386800F1402081687A68114381609D
:100A6000022000F005F9386800F1402081687A68BA
:100A700091438160022000F0FBF8B86800F140204B
:100A80008168FA689143816020469EE72DE9F04134
:100A900000244F4F06462546386800F14020006983
:100AA0007968084216D1032000F0E2F8D7E9001077
:100AB00001F14021096988430CD16006040ED7E991
:100AC000021001F140210969884301D144F0010479
:100AD0006D1CEDB2082DDFD3A6B1022000F0C8F8DE
:100AE000D7E90201FFF75BFEB86800F1402081689A
:100AF000FA6811438160072000F0BAF8D7E90201D3
:100B0000FFF728FE204660E72DE9F04107460D4635
:100B100016465024FFF79DFE2000A4F10101CCB23F
:100B2000FAD1082201213846FFF7ECFE80B10822F5
:100B300001212846FFF7E6FE50B108220121304688
:100B4000FFF7E0FE20B1FFF7B4FE122D04D009E05C
:100B5000FFF7AFFE002038E7300603D54FF47A7078
:100B600000F093F8012030E770B504460D46FFF71A
:100B700070FE082201212046FFF7C4FE0822012151
:100B80002846FFF7BFFEFFF794FEFFF762FE44F032
:100B9000010008220121FFF7B5FE08210120FFF71F
:100BA00016FFC4B2FFF785FE204670BD70B505463E
:100BB0000C46FFF74EFE082201212846FFF7A2FE51
:100BC000200A08220121FFF79DFEE0B2082205E07D
:100BD000CC980020C40200200100FFFF0121FFF794
:100BE00091FEFFF736FE45F0010008220121FFF7D4
:100BF00089FE08210120FFF7EAFEC4B2FFF759FE83
:100C0000204670BD2DE9F04107460D46164650249A
:100C1000FFF71FFE2000A4F10101CCB2FAD1082297
:100C200001213846FFF76EFEB0B1280A08220121E3
:100C3000FFF768FE80B1E8B208220121FFF762FEEB
:100C400050B1082201213046FFF75CFE20B1FFF7CA
:100C500030FE122D04D009E0FFF72BFE0020B4E691
:100C6000300603D54FF47A7000F00FF80120ACE69F
:100C70000A49096801B10847002805D00021491C2C
:100C8000C829FCD3401EF7E77047002805D0002193
:100C9000491C6429FCD3401EF7E77047C4020020BA
:100CA00004462BA000F0D2FC204600F02CF8FEE712
:100CB0002D498A691202FCD408600A2804D1886987
:100CC0000002FCD40D2008607047F1E726488169D6
:100CD0004904FCD40068C0B270472348806940F3DF
:100CE000C030401C70472048806900F08050704739
:100CF000DEE700B50346FFF7DBFF184600BDE5E77A
:100D00004FF0FF30704710B50446016817A000F09F
:100D10009DFC19A0616800F099FC1AA0A16800F080
:100D200095FC1BA0E16800F091FC1CA0216900F07B
:100D30008DFC1DA0616900F089FC1EA0A16900F076
:100D400085FCE169BDE810401DA000F07FBC0000FB
:100D5000496E2048617264204661756C7420486158
:100D60006E646C65720A000000000740723020203B
:100D70003D20307825780A00723120203D203078DF
:100D800025780A00723220203D20307825780A002C
:100D9000723320203D20307825780A0072313220CD
:100DA0003D20307825780A006C7220203D20307874
:100DB00025780A00706320203D20307825780A00CD
:100DC000707372203D20307825780A006E4A10B585
:100DD000536840F2BF74A34303435360106820F08C
:100DE00060000843106010BD70B5674C256A674EFF
:100DF00041EA0040354005432562606A43EA02410A
:100E000030400843606270BD5F490866086840F47E
:100E10008010086070475E4B186059609A6053F804
:100E2000800D40F48010186070475748016821F029
:100E300001010160704754498A6822F4D8120243C4
:100E40008A60704750498A6882438A6070474E487A
:100E5000016841F00101016070474B4901280868B1
:100E600006D040F4803008600868C007FCD07047A6
:100E700020F001000860704770B5CDB2040A090A7D
:100E8000000640EA05454048866AB6B235438562A9
:100E9000240644EA0141846CA4B221438164D1B2A6
:100EA000120ADCB2856A1B0A6FF30F0544EA0121BE
:100EB0000D438562816C43EA02226FF30F011143F7
:100EC000816470BD70B5CDB2040A090A000640EA1B
:100ED00005452D48C66AB6B23543C562240644EAC4
:100EE0000141C46CA4B22143C164D1B2120ADCB284
:100EF000C56A1B0A6FF30F0544EA01210D43C56261
:100F0000C16C43EA02226FF30F011143C16470BD4B
:100F10001D494A6B6FF30D0202434A6370471A4939
:100F20004A6B1C4B1A4042EA00404863704770B558
:100F3000DDE9045C11B14FF4807400E0002412B1CB
:100F40004FF4007100E000210C430F490A6940F2A0
:100F50000136B243144344F001020A610A6922F4E3
:100F6000406242EA80200861086920F4F81040EAF3
:100F7000034008618D61C1F814C070BD0248016969
:100F800021F00101016170470000034000F000F80A
:100F900080000340FFFF00C0BF48016821F0060148
:100FA0000160704741EA421141F01002BA498A6576
:100FB0000A6842F040020A60CA6822F0405242EADF
:100FC0000002CA607047B54904200860B44801684F
:100FD00041F09001016030BF7047B148016841F0B5
:100FE0008001016030BF704710B5FFF75DF9AA4876
:100FF000083000684106AB48006800D5400810BDC5
:10100000A7480068C00700D0A7487047A4480068F8
:10101000800702D54FF4004070470020704710B59C
:10102000FFF742F99F48006810BD10B5FFF73CF983
:101030009C48006810BD984838300068C10201D54E
:1010400000207047010301D5984A00E0964AC0F39A
:10105000813131B1012906D0022904D0032905D1FB
:1010600003E0012102E0022100E00421C0F30803B3
:101070009B1CC0F34420801C5A43B2FBF0F0B0FB31
:10108000F1F070478A4A136923F00F0343EA010322
:101090001361116821F0070141EA00011160FFF7B7
:1010A00003B984464FF4D8314FF0804205E00B1E5F
:1010B000A1F1010101DC00207047D2F850323CEA76
:1010C0000300F4D10120704710B54FF08042D2F8F0
:1010D00010127849884200D20846D2F80012C90797
:1010E00002D00021704C02E0704C4FF40021724B92
:1010F000984203D2800041F4404302E0400041F4B2
:1011000080436E49B0FBF1F0B4FBF1F14FF4817410
:1011100001E0490840081129FBD8A042F9D2684CE7
:10112000801E04EB412119430143C2F84012042000
:10113000FFF7B7FF00210220FFF7A4FFFFF7B4F885
:101140005848006810BD30B510F47F3F12D0584C9D
:10115000C0F38143103404EB8303D3F800C0C0F321
:101160008724C0F34415AC402CEA040C4CEA020C72
:10117000C3F800C0420E52070DD04D4BC0F30172B0
:1011800003EB82021368C0F34264C0F3045084404E
:10119000A3430B43136030BD41490A6842EA000291
:1011A0000A6070473E490A6822EA00020A607047F6
:1011B000820F4FF0804101EB8201D1F8042200F050
:1011C0001F03012098400243C1F804227047820F98
:1011D0004FF0804101EB8201D1F8042200F01F039F
:1011E000012098408243C1F8042270474FF4002246
:1011F00010B5D3029042D3F8400220F4803005D1DC
:1012000040F40020C3F84002284C03E0C3F8400239
:10121000254C00222848814203D2880042F44042F3
:1012200002E0480042F480422449B0FBF1F0B4FBF4
:10123000F1F14FF4817401E0490840081129FBD80D
:10124000A042F9D21E4C801E04EB41211143014300
:10125000C3F840120420FFF724FFBDE81040EAE67F
:101260001848016821F480310160704710490A680C
:1012700022F0380242EA00020A6070471249096807
:1012800048434FF0E0214861002088610520086153
:101290000869C003FCD570470802004010ED00E06B
:1012A0000002004000000020001BB7000080510138
:1012B0001002004000366E0180F0FA0240420F003A
:1012C00000FCFFFF40020040040000204FF080417E
:1012D0004A6802434A6070474FF08040806900F0DE
:1012E000400070474FF080404068704726480068D3
:1012F00000F001007047244900200860704710B5D5
:10130000592116234FF08040882205E0C0F80011D3
:10131000C0F80031C0F80021D0F80041012CF5D10F
:1013200010BD4FF08040006870474FF080408168EA
:1013300041F00101816070474FF08040816841F0C9
:101340000201816070474FF0804101EB10618B68B2
:101350000122824013438B60886890438860704705
:101360004FF08042936923F00E0393619369034326
:1013700041F001000343936170474FF08040816961
:1013800021F0010181617047000100404A0507D545
:10139000826942F070028261826942F008028261D1
:1013A0000A0503D5426942F0010242618A0403D56D
:1013B0008269704B1A438261C90403D5C16941F047
:1013C0001001C1617047002141607047416821F4FC
:1013D00040514160704742688A43426070470169EA
:1013E00041F400710161016901F00201016141698B
:1013F00041F480714161416841F44051416070475E
:1014000042680A43426070477FB504465A480D4619
:101410000168D0E90220CDE902200091FFF70BFE20
:10142000564A019010684FF00001C0F3016021633B
:101430004FF00303E360A1605DF82010D068002D39
:10144000C0F3032000F10100B1FBF0F113D001EB78
:101450005500B0FBF5F0A0F10200B0F5803F07D3D6
:1014600001EBC500B0FBF5F0591F01EB101001E0D6
:1014700040F0405060627FBD10B50346002005E09B
:101480009C69640404D41C680C54401C9042F7D33B
:1014900010BD2DE9FF41054637480C461646016947
:1014A000D0E90620CDE90220DDF828801F46009112
:1014B000FFF7C1FD314A01901068D168C0F30160A7
:1014C0005DF82000C1F3032101F10101B0FBF1F14E
:1014D0009CB101EB5400B0FBF4F0801EB0F5803FEE
:1014E00008D301EBC400B0FBF4F06FF0010101EB95
:1014F000101001E040F0405068623E4346EA0806A2
:10150000EE60BDE8FF81026A22F0FF020A43026238
:10151000416841F40061416070470B214162816A7A
:1015200021F020018162816A41F040018162816A7B
:1015300012B141F0020101E021F0020181620221B9
:1015400001637047032303630023C362C36A41EA54
:1015500002610B43C362704710B50346002005E0EB
:101560009C69240204D40C5C1C60401C9042F7D19E
:1015700010BD0000010000014C1B000014020040DF
:101580002DE9F05F0546002092469B4688460646B8
:10159000814640241DE0284641464746224600F049
:1015A00044F8B0EB0A0052465B4671EB0B0110D3D6
:1015B00010461946224600F029F82D1A67EB01085B
:1015C0004F4622460120002100F020F817EB0009C9
:1015D0004E41201EA4F10104DDDC484631462A4676
:1015E0004346BDE8F09F0000064C074D06E0E0686A
:1015F00040F0010394E8070098471034AC42F6D35A
:10160000FEF73EFE6C1B00008C1B0000202A04DB52
:10161000203A00FA02F1002070479140C2F1200305
:1016200020FA03F3194390407047202A04DB203A44
:1016300021FA02F00021704721FA02F3D040C2F1F2
:101640002002914008431946704700000FB4054B33
:1016500010B503A9044A029800F018F810BC5DF810
:1016600014FB0000F30C0000C802002002E008C8D0
:10167000121F08C1002AFAD170477047002001E00C
:1016800001C1121F002AFBD1704700002DE9FF4F56
:101690008DB005460F460026EEE1252879D10024BD
:1016A0006D1CF94AA246A14601212B78203B01FA84
:1016B00003F0104202D004436D1CF6E728782A2874
:1016C00010D06FF02F022878A0F13001092915D829
:1016D0000AEB8A0102EB410144F0020400EB010A2B
:1016E0006D1CF0E757F804ABBAF1000F03DA44F4CD
:1016F0000054CAF1000A44F002046D1C28782E2818
:1017000017D115F8010F44F004042A280ED06FF009
:101710002F022878A0F1300109290AD809EB8901A4
:1017200002EB410100EB01096D1CF2E757F8049B45
:101730006D1C28786C280FD006DC4C2817D0682840
:101740000DD06A2814D104E0742810D07A280FD163
:101750000DE044F400140AE044F4801401E044F481
:1017600040146978814202D16D1C04F580146D1C0F
:1017700095F800C0BCF16E0F2AD012DCBCF1630FEB
:101780003CD007DCBCF1000F76D0BCF1580F19D16A
:10179000ACE018E0BCF1640F6FD0BCF1690F11D15F
:1017A0006BE0BCF1730F32D006DCBCF16F0F71D06F
:1017B000BCF1700F06D19BE0BCF1750F6BD0BCF192
:1017C000780F69D06046DDE90F129047761C52E130
:1017D000C4F30250022806D003280AD0042801CFFF
:1017E0000AD0066047E101CF4FEAE671C0E9006127
:1017F00041E101CF06803EE106703CE101CF8DF86A
:10180000000000208DF80100EB46012003E057F8AE
:1018100004BB4FF0FF3061074FF0000102D40DE030
:1018200008F10101884649450FDA8045F8DB1BF8CD
:1018300008100029F4D108E008F10101884681422E
:10184000FADB1BF808100029F6D1DDE90F23AAEB1B
:1018500008008146214600F040F9304400EB0806BC
:1018600004E0DDE90F121BF8010B9047B8F1010805
:10187000F7D221464846F9E002E10A20C4F30252B9
:101880004FF0000B0890022A07D001CFC117032A9E
:1018900009D00AE035E022E023E0FF1D27F007072A
:1018A000F7E8020105E000B2C117042A01D140B2F5
:1018B000C117002906DA0023D0EB030063EB010116
:1018C0002D2202E0220504D52B228DF824200122AE
:1018D00003E0E20701D02022F7E7904653E00A2117
:1018E00010E010204FF0000B08900EE0102109E0EE
:1018F00010214FF0000B44F004044FF00809089148
:1019000003E008214FF0000B0891C4F30252022AB1
:1019100004D001CF0021032A06D007E0FF1D27F0E5
:101920000707F7E8020105E080B20021042A01D18F
:10193000C0B200214FF00008220724D5BCF1700F7F
:101940002AD0089B83F0100353EA0B0309D150EA15
:10195000010206D030228DF824208DF825C0022205
:101960009046089B83F0080353EA0B030BD150EA1F
:10197000010201D1620706D530228DF824204FF0F4
:101980000108A9F1010941A2BCF1580F00D044A2FD
:101990000B9208AA0A920FE040228DF8242001221F
:1019A000DEE75B46089AFFF7EBFD0B9B9B5C0A9A10
:1019B000A2F101020A92137050EA0102F1D10A98D1
:1019C000ADEB000000F1200B600702D524F4803459
:1019D00001E04FF00109002049465A46D94501DD92
:1019E000A1EB020000EB0B0141440890AAEB0100BF
:1019F0000B90E00306D4DDE90F2321460B9800F09D
:101A00006CF806444FF000090DF1240A07E0DDE907
:101A10000F121AF809009047761C09F10109C14517
:101A2000F5DBE0030CD5DDE90F2321460B9800F030
:101A300054F8064404E0DDE90F1230209047761C8C
:101A40000899481E08900029F5DC08E00A980A99D0
:101A50000078491C0A91DDE90F129047761CBBF112
:101A60000001ABF1010BF1DC0B982146DDE90F23FE
:101A700000F020F806446D1C287800287FF40DAE95
:101A800011B03046BDE8F08F092801003031323303
:101A9000343536373839414243444546000000006A
:101AA00030313233343536373839616263646566D4
:101AB000000000002DE9F0410446002517461E46AF
:101AC000880405D406E039462020B04705F1010519
:101AD000641EF8D52846BDE8F0812DE9F0410446A2
:101AE0000025302790461E46C80300D420278804CE
:101AF00005D506E041463846B04705F10105641EAC
:101B0000F8D52846BDE8F08153656E736F722043A7
:101B10006869705F56657273696F6E5F48203D201B
:101B2000307825303278283078313429204368697C
:101B3000705F56657273696F6E5F4C203D20307820
:101B4000253032782830783130290A00001BB70060
:101B5000000000000080510100805101001BB7000F
:101B60000000000000805101008051018C1B00002A
:101B700000000020CC0200006C160000581E00007F
:101B8000CC020020149E00007C1600000080510151
:101B900016000000001BB7000080000000000000DD
:101BA00010270000000000000000000000000000FE
:101BB0000080510100000000000000000931040015
:101BC00040300400413002004230FF004330080042
:101BD0005230E0005F30330000310700063103006F
:101BE000083100001031220011315700123122005B
:101BF000133155001431050035310000F032010079
:101C00006A3001009032010091328000963201006A
:101C10009732730050328000513203005232FF007D
:101C200053320000543203005532FF005632000098
:101C3000573250007032000071320C0072321800BE
:101C400073323200743244007532540076327000C0
:101C50007732880078329D007932B0007A32CF0036
:101C60007B32E2007C32EF007D32F7007E32FF00F3
:101C700002330000033340000433000005339600B4
:101C80000633000007332900083307000933BA0080
:101C90000A3306000B33F5000C3301000D335100FD
:101CA0000E3301000F3330001033070011331600DC
:101CB000123307001333BA0026330200F6320F0046
:101CC000F9324200FA32240025334A003033000052
:101CD00031330A003233FF003833300039338400A7
:101CE0003A3348003F330700603310006133180077
:101CF00062331F0063333700643380006533800034
:101D00006633680067336000683330006933280049
:101D10006A3320006B3310006C3300006D332000F9
:101D20006E331C006F3318007033100071333800AD
:101D300072333C0073333F0074333F008A33340006
:101D40008B337F008C3310008D3323008E337F0064
:101D50008F33140075330A0076330C00773310008C
:101D600078331400123002001330D00060300100CC
:101D7000BF326000C0326000C1326000C232600019
:101D8000C3320000C4322000C5322000C632200019
:101D9000C7320000C832B300C9326000CA328000C6
:101DA000CB328000CC328000CD328000DB32760036
:101DB000E0320200E1328000E2320100E332E00072
:101DC000E4320000E5328000E6320000E7328000B5
:101DD00000323E0001320F00283007002930000099
:101DE0002A30140022302500233024000230000065
:101DF0000330A40004300000053004000630040065
:101E000007306300083002000930D3000A300500B3
:101E10000B303C000C3002000D30E1000E300300AE
:101E20000F30C000103002001130D000B8323F0037
:101E3000B9323100BB328700BC323800BD323C00C1
:101E4000BE32340001327F002130060060300100D4
:081E500000000000000000008A
:04000005000003A54F
:00000001FF
