:020000040000FA
:1000000048AB0020A5030000CD0300008D020000D6
:10001000D1030000D3030000D5030000000000005E
:10002000000000000000000000000000D7030000F6
:10003000D903000000000000DB0300006F04000093
:10004000DF030000DF030000DF030000DF03000028
:10005000DF030000DF030000DF030000DF03000018
:10006000DF030000DF030000DF030000DF03000008
:10007000DF030000DF030000DF030000DF030000F8
:10008000DF030000DF030000DF030000DF030000E8
:10009000DF030000DF030000DF030000DF030000D8
:1000A000DF030000DF030000DF030000DF030000C8
:1000B000DF030000DF030000DF030000DF030000B8
:1000C000DF030000DF030000DF030000DF030000A8
:1000D000DF030000DF030000DF030000DF03000098
:1000E000DF030000DF030000DF030000DF03000088
:1000F000DF030000DF030000DF030000DF03000078
:10010000DF030000DF030000DF030000DF03000067
:10011000DF030000DF030000DF030000DF03000057
:10012000DF030000DF030000DF030000DF03000047
:10013000DF030000DF030000DF030000DF03000037
:10014000DF030000DF030000DF030000DF03000027
:10015000DF030000DF030000DF030000DF03000017
:10016000DF030000DF030000DF030000DF03000007
:10017000DF030000DF030000DF030000DF030000F7
:10018000DF030000DF030000DF030000DF030000E7
:10019000DF030000DF030000DF030000DF030000D7
:1001A000DF030000DF030000DF030000DF030000C7
:1001B000F19300009B930000DF030000DF030000C9
:1001C000DF030000DF030000DF030000DF030000A7
:1001D000DF030000DF030000DF030000DF03000097
:1001E00037040000DF030000DF030000DF0300002E
:1001F000DF030000DF030000DF030000DF03000077
:10020000DF030000DF030000DF030000DF03000066
:10021000DF030000DF030000DF030000DF03000056
:10022000DF030000DF030000DF030000DF03000046
:10023000DF030000DF030000DF030000DF03000036
:10024000DF030000DF030000DF030000DF03000026
:10025000DF030000DF030000DF030000DF03000016
:10026000DF030000DF030000DF030000DF03000006
:10027000DF030000DF030000DFF80CD009F07AFA9A
:1002800000480047C704000048AB00200420714626
:10029000084202D0EFF3098001E0EFF308807146D5
:1002A000004A10477509000010B54FF08044D4F89B
:1002B000100200F00700022803D0354951F8200051
:1002C00001E000F00CFAD4F82012324A01F00F01DC
:1002D000491CB0FBF1F02E49083908601044520067
:1002E000B0FBF2F0486010BD2B4810B5016841F436
:1002F000700101604FF0080000F027FA4FF08043D2
:10030000D3F80802C0F340022AB9D3F8080240F03B
:100310000200C3F80802224820490160016801294F
:10032000FCD1D0F81011C90728D14AF665144460F1
:100330004168C903FCD5C16B41F00401C163C16BC5
:100340000906FCD544604168C903FCD5D0F89C106F
:10035000C0F89C10C16B0906FCD544604168C90314
:10036000FCD5C16B21F00401C163C16B0906FCD54A
:1003700044604168C903FCD50221C162002A05D14D
:10038000D3F8080220F00200C3F8080210BD0000F4
:100390000800002020A1070088ED00E05713EBA51E
:1003A000001004400E484FF0590101604FF0160153
:1003B00001604FF0880101600A4A45F6A5211160ED
:1003C000002101600848804708480047FEE7FEE733
:1003D000FEE7FEE7FEE7FEE7FEE7FEE7FEE7FEE7F5
:1003E0000001004024000040E90200007902000002
:1003F0008749096848434FF0E0214861002088613F
:10040000072008617047834810B50022426140F21E
:10041000FF118161C26101627F4C4FF49641204619
:1004200000F0DCFBE16941F00101E161BDE8104051
:10043000682000F053B870B5774CE069C105754885
:1004400014D5764A66150025E169C9070ED0816981
:1004500043699942F8D021684369D1544169491CE4
:1004600041614169B142EFD14561EDE770BD694835
:1004700001690A310161704770B5664D044628680C
:10048000201AFA2802D32C6004F009F9686841F2B6
:100490008831201A884202D36C6008F0C8F8A86836
:1004A000201AB0F5FA7F02D3AC6001F0E1F9E868F8
:1004B0004EF66021201A884204D3EC60BDE87040FB
:1004C00001F076B870BD00F015F8FFF79CFF00F062
:1004D0006AF8504C2069FFF7CFFFFBE700F01F02DE
:1004E0000121914040094FF0E02202EB8000C0F86A
:1004F000001170472DE9F04100F0EBFA012000F007
:100500009FF9012000F021F90021084600F00EF9C2
:100510004FF08044D4F8400240F48030C4F84002E8
:1005200044F21A00C4F84002042000F00EF9002141
:10053000022000F0FBF83A4D284600F08DF9394EC4
:10054000304600F089F94FF0E047384600F084F972
:1005500000221146284600F04AF94FF4FC0200211F
:10056000304600F044F900220321384600F03FF9FC
:10057000FFF79AFE4FF4887020662B48206406200F
:1005800060642A48016840F2DF1241EA020101601A
:100590004FF0CC40E06342F21070FFF729FFBDE856
:1005A000F04100F092BA00B587B002F0A8F902F06D
:1005B000F1FB1F4803901F4805904FF6FF70049011
:1005C000164800210D38262201704270C022827028
:1005D000A822C27001710A214171174B174A0021EC
:1005E0008DE80E0005AB04AA03A9273802F0D6FC5B
:1005F0000A48343802F008FD0848343802F053FD48
:100600005C20FFF76BFF5D20FFF768FF07B000BDC0
:100610000400002028000020000007402C010020DA
:10062000103D805705FEAF0266660666A840004092
:10063000C0A8000AC0A80014298F0000AB910000D8
:10064000BF48016821F006010160704741EA42118C
:1006500041F01002BA498A650A6842F040020A6015
:10066000CA6822F0405242EA0002CA607047B549A7
:1006700004200860B448016841F09001016030BF77
:100680007047B148016841F08001016030BF704798
:1006900010B5FFF709FEAA48083000684106AB48CC
:1006A000006800D5400810BDA7480068C00700D00A
:1006B000A7487047A4480068800702D54FF400405F
:1006C00070470020704710B5FFF7EEFD9F480068A7
:1006D00010BD10B5FFF7E8FD9C48006810BD9848B4
:1006E00038300068C10201D500207047010301D5F0
:1006F000984A00E0964AC0F3813131B1012906D011
:10070000022904D0032905D103E0012102E00221DE
:1007100000E00421C0F308039B1CC0F34420801CAC
:100720005A43B2FBF0F0B0FBF1F070478A4A13690C
:1007300023F00F0343EA01031361116821F007015D
:1007400041EA00011160FFF7AFBD84464FF4D83194
:100750004FF0804205E00B1EA1F1010101DC0020F9
:100760007047D2F850323CEA0300F4D101207047C0
:1007700010B54FF08042D2F810127849884200D26A
:100780000846D2F80012C90702D00021704C02E0DE
:10079000704C4FF40021724B984203D2800041F418
:1007A000404302E0400041F480436E49B0FBF1F069
:1007B000B4FBF1F14FF4817401E0490840081129BC
:1007C000FBD8A042F9D2684C801E04EB41211943AA
:1007D0000143C2F840120420FFF7B7FF00210220B6
:1007E000FFF7A4FFFFF760FD5848006810BD30B563
:1007F00010F47F3F12D0584CC0F38143103404EB07
:100800008303D3F800C0C0F38724C0F34415AC4081
:100810002CEA040C4CEA020CC3F800C0420E52074A
:100820000DD04D4BC0F3017203EB82021368C0F38D
:100830004264C0F304508440A3430B43136030BDB3
:1008400041490A6842EA00020A6070473E490A6864
:1008500022EA00020A607047820F4FF0804101EBEC
:100860008201D1F8042200F01F03012098400243C6
:10087000C1F804227047820F4FF0804101EB8201E2
:10088000D1F8042200F01F03012098408243C1F8F0
:10089000042270474FF4002210B5D3029042D3F8DF
:1008A000400220F4803005D140F40020C3F840021B
:1008B000284C03E0C3F84002254C0022284881421E
:1008C00003D2880042F4404202E0480042F48042F1
:1008D0002449B0FBF1F0B4FBF1F14FF4817401E075
:1008E000490840081129FBD8A042F9D21E4C801EAD
:1008F00004EB412111430143C3F840120420FFF7E8
:1009000024FFBDE81040EAE61848016821F4803170
:100910000160704710490A6822F0380242EA00027A
:100920000A6070471249096848434FF0E021486166
:1009300000208861052008610869C003FCD5704764
:100940000802004010ED00E000020040000000201E
:10095000001BB700008051011002004000366E01FC
:1009600080F0FA0240420F0000FCFFFF400200400E
:100970000400002004462BA008F00EFF204600F0E3
:100980002CF8FEE72D498A691202FCD408600A2877
:1009900004D188690002FCD40D2008607047F1E79B
:1009A000264881694904FCD40068C0B270472348D6
:1009B000806940F3C030401C70472048806900F0D7
:1009C00080507047DEE700B50346FFF7DBFF1846AF
:1009D00000BDE5E74FF0FF30704710B504460168F1
:1009E00017A008F0D9FE19A0616808F0D5FE1AA07A
:1009F000A16808F0D1FE1BA0E16808F0CDFE1CA0A4
:100A0000216908F0C9FE1DA0616908F0C5FE1EA09D
:100A1000A16908F0C1FEE169BDE810401DA008F021
:100A2000BBBE0000496E2048617264204661756C4F
:100A3000742048616E646C65720A00000000074013
:100A4000723020203D20307825780A007231202035
:100A50003D20307825780A00723220203D20307801
:100A600025780A00723320203D20307825780A004E
:100A7000723132203D20307825780A006C722020B7
:100A80003D20307825780A00706320203D203078A2
:100A900025780A00707372203D20307825780A008E
:100AA0004FF080414A6802434A6070474FF08040EF
:100AB000806900F0400070474FF080404068704708
:100AC0002648006800F001007047244900200860B3
:100AD000704710B5592116234FF08040882205E059
:100AE000C0F80011C0F80031C0F80021D0F8004172
:100AF000012CF5D110BD4FF08040006870474FF0D9
:100B00008040816841F00101816070474FF0804072
:100B1000816841F00201816070474FF0804101EB34
:100B200010618B680122824013438B608868904378
:100B3000886070474FF08042936923F00E03936101
:100B40009369034341F001000343936170474FF001
:100B50008040816921F001018161704700010040FE
:100B60004A0507D5826942F070028261826942F0CB
:100B7000080282610A0503D5426942F0010242611E
:100B80008A0403D58269704B1A438261C90403D574
:100B9000C16941F01001C161704700214160704797
:100BA000416821F440514160704742688A43426085
:100BB0007047016941F400710161016901F00201AE
:100BC0000161416941F480714161416841F44051E2
:100BD0004160704742680A43426070477FB50446EF
:100BE0005A480D460168D0E90220CDE90220009163
:100BF000FFF775FD564A019010684FF00001C0F3F1
:100C0000016021634FF00303E360A1605DF82010F1
:100C1000D068002DC0F3032000F10100B1FBF0F11A
:100C200013D001EB5500B0FBF5F0A0F10200B0F5D8
:100C3000803F07D301EBC500B0FBF5F0591F01EB76
:100C4000101001E040F0405060627FBD10B50346D7
:100C5000002005E09C69640404D41C680C54401C0A
:100C60009042F7D310BD2DE9FF41054637480C46A9
:100C700016460169D0E90620CDE90220DDF828807A
:100C80001F460091FFF72BFD314A01901068D16893
:100C9000C0F301605DF82000C1F3032101F10101FF
:100CA000B0FBF1F19CB101EB5400B0FBF4F0801EFD
:100CB000B0F5803F08D301EBC400B0FBF4F06FF057
:100CC000010101EB101001E040F0405068623E432A
:100CD00046EA0806EE60BDE8FF81026A22F0FF02E4
:100CE0000A430262416841F40061416070470B2190
:100CF0004162816A21F020018162816A41F04001F4
:100D00008162816A12B141F0020101E021F0020129
:100D10008162022101637047032303630023C362DE
:100D2000C36A41EA02610B43C362704710B50346D0
:100D3000002005E09C69240204D40C5C1C60401C6B
:100D40009042F7D110BD0000010000019C9A000004
:100D50001402004040BA704740BA704700BA70476A
:100D600000BA704710B5040002D0206948B10FE006
:100D7000BDE81040D4A340F2C962DFA1E6A008F0AC
:100D80000BBDD1A340F2CA62EDA1E3A008F004FDBF
:100D9000606930B9CCA340F2CB62F3A1DEA008F0C9
:100DA000FBFC206908B102F0F1F9002020616061CC
:100DB00010BD10B5040002D0606948B10FE0BDE875
:100DC0001040C1A340F2DE62F1A1D3A008F0E4BC60
:100DD000BDA340F2DF62F7A1CFA008F0DDFC208BBD
:100DE000442806D3B8A34FF4DC62FDA1CAA008F0E2
:100DF000D3FC208B6269FF210244401C208382F8CF
:100E0000F010002105E062690244401C208382F852
:100E1000F010208B4428F6D310BD70B50446008B2B
:100E20000D46442806D3A8A340F20152FCA1BAA063
:100E300008F0B2FC208B61690144401C208381F8DA
:100E4000F05070BD70B50E460446018B901C0844EE
:100E50001546442806D99CA340F2F642FF49AEA0AD
:100E600008F09AFC208B61690144401C208381F8C2
:100E7000F060208B61690144401C208381F8F050B0
:100E800070BD70B50446008B0D46801C442807D900
:100E9000F2498DA34FF4A16248319FA008F07CFC79
:100EA000208B6269290A0244401C208382F8F010DA
:100EB000208B61690144401C208381F8F05070BD93
:100EC0002DE9F04105000C46164629D09CB3206957
:100ED00030B17DA340F27E62E1A18FA008F05CFCFE
:100EE000606930B178A340F27F62E7A18AA008F080
:100EF00053FC00224FF49A773946104602F08EF9DF
:100F0000206118B34089B84206D26FA340F28662CE
:100F1000E7A181A008F040FC617BF548C9B11BE066
:100F200069A340F27C62F3A17BA008F035FC6FF06E
:100F30000D00BDE8F081FFE763A340F27D62F5A1FB
:100F400075A008F029FC6FF00500F2E74FF0FF30C4
:100F5000EFE70168491C01600068206020690121F9
:100F6000002740686061017060694170616995F8AF
:100F7000260088706069C7702068FFF7EFFE61691E
:100F8000082E486060690781606947816069C760B1
:100F900008D0042E06D0032E07D1207B052801D0CF
:100FA000042802D161696868C86060690761606986
:100FB000476160698761002095F8262039468242A2
:100FC00002D9291891F8271000F11C026369401C0E
:100FD00080B299541028EFD3002000F12C026169EF
:100FE000401C80B28F544028F7D3002000F16C01E0
:100FF0006269401C80B257548028F7D36169CD489C
:10100000C1F8EC0027830020626900F1F001505420
:10101000401C80B24428F7D3012235212046FFF737
:1010200011FF31462046FFF7F8FE002081E7F8B5B2
:10103000046A0546002060620621204601F079F826
:10104000012221462846FFF73BFF060030D102224D
:1010500039212046FFF7F6FEA98C2046FFF711FF45
:10106000042237212046FFF7EDFE01212046FFF73D
:10107000D4FE03212046FFF7D0FE1C212046FFF7B7
:10108000CCFE06212046FFF7C8FE2046FFF791FE62
:10109000208BF03081B2206902F0AAF90095432339
:1010A000A54A2169606806F090F82046FFF75AFECD
:1010B000607B3C21401CC0B26073062801D2012134
:1010C00081404FF47A7039E12E2E5C2E2E5C2E2E4C
:1010D0005C546869726450617274795C6C77697091
:1010E0002D312E342E315C7372635C636F72655CDC
:1010F000646863702E630000646863705F64656C8D
:101100006574655F6D73673A206468637020213D84
:10111000204E554C4C000000417373657274696F2A
:101120006E2022257322206661696C6564206174DB
:10113000206C696E6520256420696E2025730A0085
:10114000646863705F64656C6574655F6D73673A4E
:1011500020646863702D3E705F6F757420213D20A0
:101160004E554C4C00000000646863705F64656C11
:101170006574655F6D73673A20646863702D3E6DBA
:1011800073675F6F757420213D204E554C4C0000F5
:10119000646863705F6F7074696F6E5F74726169A9
:1011A0006C65723A206468637020213D204E554C76
:1011B0004C000000646863705F6F7074696F6E5FED
:1011C000747261696C65723A20646863702D3E6D5B
:1011D00073675F6F757420213D204E554C4C0A009B
:1011E000646863705F6F7074696F6E5F7472616959
:1011F0006C65723A20646863702D3E6F7074696F1D
:101200006E735F6F75745F6C656E203C204448435D
:10121000505F4F5054494F4E535F4C454E0A0000AB
:10122000646863705F6F7074696F6E5F6279746514
:101230003A20646863702D3E6F7074696F6E735FDF
:101240006F75745F6C656E203C20444843505F4F5F
:101250005054494F4E535F4C454E0000BC9A00001D
:10126000646863705F6372656174655F6D73673A2C
:1012700020646863702D3E705F6F7574203D3D2063
:101280004E554C4C00000000646863705F637265EB
:101290006174655F6D73673A20646863702D3E6D9D
:1012A00073675F6F7574203D3D204E554C4C0000B8
:1012B000646863705F6372656174655F6D73673ADC
:1012C00020636865636B207468617420666972735B
:1012D0007420706275662063616E20686F6C642094
:1012E00073747275637420646863705F6D736700F4
:1012F00050000020646863705F6372656174655FAD
:101300006D73673A206E6574696620213D204E55E5
:101310004C4C0000646863705F6372656174655F64
:101320006D73673A206468637020213D204E554CF0
:101330004C00000063825363149C0000414388B258
:1013400000F2F3104FF4FA71B0FBF1F06083304615
:10135000F8BD70B5046A05460821204600F0E9FE94
:10136000002204F12401284607F0B6FC607B401CF3
:1013700060730120608370BD70B50446008B0D461C
:10138000001D442808D9AFF2C0234FF4A262FAA18D
:10139000AFF27C2008F000FA208B6269290E02442B
:1013A000401C208382F8F010208B6269290C0244D3
:1013B000401C208382F8F010208B6269290A0244C5
:1013C000401C208382F8F010208B61690144401C8E
:1013D000208381F8F05070BDF8B5046A05460121FC
:1013E000204600F0A6FE032221462846FFF768FDAE
:1013F000060048D1022239212046FFF723FDA98C9F
:101400002046FFF73EFD042232212046FFF71AFD59
:10141000606AFFF7A5FC01462046FFF7ADFF0422F6
:1014200036212046FFF70EFD206AFFF799FC0146A2
:101430002046FFF7A1FF042237212046FFF702FDD7
:1014400001212046FFF7E9FC03212046FFF7E5FCD8
:101450001C212046FFF7E1FC06212046FFF7DDFCBA
:101460002046FFF7A6FC208BF03081B2206901F006
:10147000BFFF00954323D04A2169606805F0A5FEAF
:101480002046FFF76FFC607B3C21401CC0B26073BC
:10149000062801D2012181404FF47A70414388B27D
:1014A00000F2F3104FF4FA71B0FBF1F060833046B4
:1014B000F8BDF8B5046A05460521204600F039FE5E
:1014C000032221462846FFF7FBFC06001CD102221E
:1014D00039212046FFF7B6FCA98C2046FFF7D1FC46
:1014E0002046FFF766FC208BF03081B2206901F0C6
:1014F0007FFF0095432304F120022169606805F015
:1015000064FE2046FFF72EFC607B44F62061401C01
:10151000C0B260730A2802D24FF4FA61414388B224
:1015200000F2F3104FF4FA71B0FBF1F06083304633
:10153000F8BDF8B5046A05460421204600F0F9FD1F
:10154000032221462846FFF7BBFC06001BD10222DE
:1015500039212046FFF776FCA98C2046FFF791FC45
:101560002046FFF726FC208BF03081B2206901F085
:101570003FFF00954323904A2169606805F025FEEE
:101580002046FFF7EFFB607B42F21071401CC0B2B7
:1015900060730A2802D24FF47A71414388B200F294
:1015A000F3104FF4FA71B0FBF1F060833046F8BDF0
:1015B000824810B5046825E0206A10B3C18B4A1E2A
:1015C000C283012906D0216A888B421E8A830128A2
:1015D0000CD016E0206A007B012803D00A2801D035
:1015E00005280ED12046FFF7A4FF0AE0206A007B01
:1015F000012803D00A2801D0052802D12046FFF790
:1016000058FF2468002CD7D110BDF8B5046A0646EF
:101610000321204600F08DFD032221463046FFF7CE
:101620004FFC050028D1022239212046FFF70AFC91
:101630004FF410712046FFF724FC0422322120468B
:10164000FFF700FC606AFFF78BFB01462046FFF7BF
:1016500093FE2046FFF7ADFB208BF03081B220696E
:1016600001F0C6FE00964323534A2169606805F0E5
:10167000ACFD2046FFF776FB607B42F21071401C08
:10168000C0B260730A2802D24FF47A71414388B223
:1016900000F2F3104FF4FA71B0FBF1F060832846CA
:1016A000F8BDF8B5046A06460021204600F041FD69
:1016B000002020626062A062E062A0636063206339
:1016C000072221463046FFF7FBFB050013D12046D9
:1016D000FFF76FFB208BF03081B2206901F088FEAC
:1016E0000096432304F120022169606805F06DFD36
:1016F0002046FFF737FB607B42F21071401CC0B2FE
:1017000060730A2802D24FF47A71414388B200F222
:10171000F3104FF4FA71B0FBF1F06083304601F042
:1017200076FC2749304601F0FCFB2549304601F0A4
:10173000F0FB2349304601F0F0FB2846F8BD2DE9C7
:10174000FC4105003ED02C6AACB1606B4FF03C010F
:10175000421C4FF480374FF001064FF6FF7343D021
:101760001E30B0FBF1F0B84200D318460004000C64
:10177000A08338D038E02BE0646863705F6F7074CA
:10178000696F6E5F6C6F6E673A20646863702D3EA0
:101790006F7074696F6E735F6F75745F6C656E20C8
:1017A0002B2034203C3D20444843505F4F50544947
:1017B0004F4E535F4C454E00149C000078000020B3
:1017C000109C0000AFF200734FF46972FBA104E0BB
:1017D000AFF20C7340F2A632FFA1AFF2C46007F083
:1017E000DBFFBDE8FC81A683A26B501C0AD01E3231
:1017F000B2FBF1F1B94200D319460804000CE083B2
:1018000000D1E683A18BE08B814202D308B1002096
:10181000A083A07B08B1A06A09E094F824207F2A65
:1018200001D8FF2003E0C02A03D36FF07F4000906F
:1018300000E00093E06A019028B9606A00990840CE
:1018400040F08070019004F12401284601F069FB0A
:101850006946284601F061FB01A9284601F059FBC1
:10186000284601F020FC0A21204600F062FCB8E77F
:1018700070B5DF48002504680EE0206A58B1418B3E
:10188000012903D9A1F10101418304E003D145837A
:10189000204600F056FC2468002CEED170BDF8B54F
:1018A000046A0020D34DA062E062E978A5F1280621
:1018B00009B1F1682163297909B1316901E0216B2E
:1018C00049086163697909B1716900E0216BA1631D
:1018D000A16809696162A97921B1B069FFF73EFA8F
:1018E000A0620120A073E87918B1F069FFF736FA19
:1018F000E06200240BE006EB8400006AFFF72EFA9A
:1019000000906946204600F099FC641CE4B2281956
:10191000007A002801D0022CEDD3F8BD70B5040088
:101920000D4608D1AFF6600340F24D22B2A1AFF6EA
:10193000180007F031FF45B9AFF6740340F24E22AC
:10194000B1A1AFF62C0007F027FF206A40B1AFF637
:10195000880340F24F22B0A1AFF6440007F01CFF0D
:101960003C21284607F0B8FE256270BD10B5040082
:1019700008D1AFF6AC034FF418729FA1AFF6680020
:1019800007F00AFF206A002803D000F0CDFF0020F6
:10199000206210BD10B5F0B150F8204F417B002CF3
:1019A00021F00801417321D0606818B105F0C8FC2E
:1019B00000206060A06840B1AFF6F40340F2DA4264
:1019C0009EA1AFF6AC0007F0E7FE2046BDE8104050
:1019D000002100F0AEBBAFF6101340F2C7429CA14D
:1019E000AFF6CC00BDE8104007F0D6BE10BD2DE923
:1019F000F34F044683B00020834601900A217D48BE
:101A000007F06AFE049840892C2816D30498F02623
:101A10004068A0600498B0F80880049F06E0311A7E
:101A2000A8EB00003F688EB21FFA80F82FB17889CA
:101A3000B042F4D9D7F804A08FE16FF0010005B0EF
:101A4000BDE8F08FB01C1FFA80F97B89701C4FF045
:101A5000FF34834203D90AEB0600407803E038687C
:101A600008B140680078342A054664D00BDC032AAC
:101A700035D003DC2AB3012A0DD127E0062A38D05D
:101A8000332A08D14DE0352A5ED0362A66D03A2A6C
:101A90006DD03B2A75D000253044801C86B285B3BA
:101AA000002000900A2C08D3AFF6E41340F2AD52A8
:101AB0006EA1AFF69C1007F06FFE4E48005D78B344
:101AC0002FE10020761E0546B6B2E5E7042804D0D3
:101AD000AFF60C2340F27B5229E00624DCE7042514
:101AE000042804D2AFF620234FF4B06214E0072498
:101AF000D2E7820706D0AFF6302340F2855260A1CC
:101B0000F9E00EE10825082800D20546A84205D2D2
:101B1000AFF64C234FF4B1625DA1ECE00824BBE7C3
:101B200038E0042805D0AFF6602340F28C525DA166
:101B3000E1E00324B0E7012804D0AFF674234FF4AA
:101B4000B26207E00024A7E7012805D0AFF688239A
:101B500040F2945256A1CEE001249DE7042804D01F
:101B6000AFF69C234FF4B362E1E7022494E7042824
:101B700005D0AFF6AC2340F29C52D8E701E0042434
:101B80008AE7042804D0AFF6C0234FF4B462CEE74E
:101B9000052481E70422042D00D22A464B466946DB
:101BA000384601F008FF042D06D9A80705D0AFF686
:101BB000E82340F2B35281E094E081E0646863700E
:101BC0005F62696E643A206E6574696620213D200B
:101BD0004E554C4C00000000646863705F62696E93
:101BE000643A206468637020213D204E554C4C00BF
:101BF00078000020540300206E6574696620213D42
:101C0000204E554C4C0000006468637020213D203C
:101C10004E554C4C000000006E6574696620616C86
:101C200072656164792068617320612073747275D4
:101C30006374206468637020736574007265706CEF
:101C400079207761736E2774206672656564000081
:101C5000646863705F73746F703A206E6574696650
:101C600020213D204E554C4C000000006368656308
:101C70006B206465636F64655F69647800000000D1
:101C80006C656E20252034203D3D20300000000092
:101C90006C656E203E3D206465636F64655F6C65B6
:101CA0006E0000006C656E203D3D20340000000099
:101CB0006C656E203D3D203100000000F8A11AE067
:101CC000FC4A012010550098FFF748F8F94A2D1FEB
:101CD000283A09F1040942F82400EDB21FFA89F903
:101CE000641CDFE6042D0DD0012D0FD0AFF6284384
:101CF00040F2BD52F0A1AFF6E03007F04DFD6FF0BD
:101D000005009CE60098FFF72BF801E09DF8000025
:101D1000E84A009001201055E648009A283840F81B
:101D200024207889B04217D8311AA8EB00008EB26F
:101D30001FFA80F8464517D2B8F1000F14D03F685B
:101D400047B9AFF67C4340F2C952E0A1AFF6384044
:101D500007F022FDD7F804A037B11AF80620FF2AB1
:101D600002D04645FFF46EAED249087868B1A1F1C1
:101D70002800002200680A70012808D0022802D03A
:101D800003280AD001E04FF0010B019840B1002078
:101D90006C264FF0EC0801903FE64FF0010BF6E7A0
:101DA000BBF1000F05D04FF0000B2C264FF06C0854
:101DB00033E6002043E62DE9F041046A0546566803
:101DC000A068174648B1AFF6005340F21162AFF277
:101DD0009411AFF6BC4007F0DFFC78894FF00008A3
:101DE0002C2872D3307802286FD1002095F8261065
:101DF00008E02A18331892F827201B7F9A4264D1F2
:101E0000401CC0B28142F4D87068FEF7A9FF216877
:101E100088425AD139462046FFF7E9FD08BBA5495B
:101E20004878F0B1A1F128025068C0B2052804D06A
:101E3000062817D0022836D047E0207B012806D09C
:101E400003280BD0042809D0052807D03DE02846F8
:101E5000FFF725FD2846FFF77CFA36E02846FFF716
:101E60006EFC32E0207B032805D0012803D0042833
:101E700001D0052829D128462E6A01F0C8F89849D2
:101E8000284601F04EF89649284601F042F8944958
:101E9000284601F042F80C21304600F04AF9284665
:101EA000FFF7C5F811E0207B06280ED1A4F81A80B0
:101EB00088782E6A48B19068FEF750FF3062B068AB
:101EC000006970622846FFF787FA3846C4F8088030
:101ED000BDE8F04101F05AB970B505006FF00D068C
:101EE0004DD095F82D002C6A20F0080085F82D00C3
:101EF000800656D5A88C3611B0F5107F51D3ECB3BF
:101F0000606808B105F01CFA206940B1AFF648637B
:101F100040F29E2273A1AFF6006007F03DFCA0687E
:101F200048B1AFF65C6340F29F22AFF2F021AFF60A
:101F3000186007F031FC3C21204607F0CDFB05F08E
:101F400013FA606028B3017A442241F02001017243
:101F50006349606805F0DAF843226149606805F07A
:101F6000C0F92A466549606805F0E7F92846FFF799
:101F70005EF8C0B12846FFF70DFD12E00AE0AFF6AB
:101F8000B86340F27A22AFF29031AFF6746007F096
:101F900003FC06E03C2000F070FD040001D02C6240
:101FA000C9E7304670BD15F82D1F41F008012970B2
:101FB00070BD30B591B005000CD03C2101A807F0F0
:101FC0008BFB082101A800F0B4F8286A70B14468BE
:101FD000D4B90BE0AFF6107340F2CE22AFF2E83185
:101FE000AFF6CC6007F0D8FB11B030BD05F0BCF9FE
:101FF0000400F9D00294207A442240F0200020729C
:102000003749029805F082F8082201A92846FEF710
:1020100057FFE0B90222392101A8FEF713FFA98C6E
:1020200001A8FEF72EFF01A8FEF7C3FEBDF81C00B5
:10203000F03081B2059801F0DBF900954323304A76
:102040002046059905F0C1F801A8FEF78BFE02981D
:102050000028C9D005F074F9C6E770B5046A0546D2
:10206000002C1CD0207B002604280FD004DC002884
:1020700015D0032804D109E0052807D00A2805D087
:1020800066732846BDE87040FEF7D1BF284600F0D1
:10209000BEFF66732846BDE87040FFF7B6BA70BD54
:1020A0006465636F64655F6C656E20252034203D38
:1020B0003D20300054030020696E76616C69642015
:1020C0006465636F64655F6C656E00006E6578744F
:1020D000207062756620776173206E756C6C0000ED
:1020E000109C00007062756620705F6F75742077B9
:1020F00061736E277420667265656400B71D000009
:10210000149C000058B1026A002A11D0137B082BDE
:102110000ED10968526A91420AD100F056B8454B77
:1021200040F22532AFF2305103F1500007F034BBDA
:102130007047027B8A4203D00173002141734183BF
:10214000704710B5016A0446087B0C281ED006288B
:102150001CD001280FD008281DD0052827D004281E
:102160002AD0032830D1487B02280FD22046BDE870
:102170001040FFF74ABA487B052804D82046BDE83E
:102180001040FFF729B92046FFF78BFA2046BDE83B
:102190001040FEF74CBF487B0128204603D8BDE81D
:1021A0001040FFF7D6B8BDE81040FFF7C8BA204688
:1021B000BDE81040FFF77DB9487B0828E3D82046EA
:1021C000BDE81040FFF7B5B910BDF8B5046A064682
:1021D0000C212046FFF7ADFF042221463046FEF7D2
:1021E0006FFE05001ED1042232212046FEF72AFE92
:1021F000606AFEF7B5FD01462046FFF7BDF82046B0
:10220000FEF7D7FD208BF03081B2206901F0F0F8A5
:1022100000964323084A2169606804F0D6FF2046EF
:10222000FEF7A0FD607B401C60731420608328468D
:10223000F8BD0000C8100000149C000002280CD259
:10224000FF4A5268002A08D0002906D009680029F0
:1022500003D0FB4A0C3242F8201070472DE9FE4FA4
:1022600090461289B2F5007F72D81A2A70D3F44FC3
:1022700000234046B96801F09EFBB8F80810884278
:1022800066D1BE683088FEF765FD042860D2C0EBD9
:10229000C000EC4900EB800001EBC004207802286C
:1022A00056D14FF0030A84F800A0F07800F00F0038
:1022B0006071B088FEF74EFD8146F088FEF74AFD5A
:1022C0000546B0784FF0000B000661D56079F0BB91
:1022D000B9F1010F5CD1B86804F10C010C308946EA
:1022E0008446524610F8013BB2EB931F0ED007E034
:1022F0000E780778BE424BD1401C491C5B1EDBB2F6
:10230000002BF5D10378491C002BEBD1604600F07F
:1023100040FA001D4FF480774FF4806A36E000F0F9
:1023200038FA064600680090706801903089ADF870
:102330000800BDF80000B84220D1BDF80200B84244
:102340001CD1BDF80800504518D1019801E01FE0EC
:102350002BE0FEF705FDBC49A060884200D9A160D2
:10236000D6F80A00C4F80C01D4F81031EBB104F52A
:1023700086714846D4F81421984716E0BDF8080045
:10238000FEF7E8FC30440A306D1EADB2002DC6D118
:10239000D4F810312BB1002104F10C00D4F8142131
:1023A000984784F800B0C4F810B14046BDE8FE4F2D
:1023B00000F0ECBE38B5A548A14C20F00300A060A9
:1023C000A3A005F086FD00906068002811D104F0FC
:1023D000CBFF606000280CD00022A14904F096FEDB
:1023E0000022A049606804F0A8FF69460020FFF7BA
:1023F00025FF38BD022804D291490C3101EB800041
:1024000000E09748006870472DE9F04704460F4602
:102410001646022806D394A34FF40F729EA1A4A0DF
:1024200007F0BAF986480C3010EB840802D050F857
:10243000240030B98CA340F23D22A7A19CA007F054
:10244000ABF900224FF48871104600F0E7FE05005A
:102450004DD0286830B184A340F24322A7A194A0B4
:1024600007F09AF96C684FF000093046C4F8009004
:10247000C4F80490C4F80890FEF76CFC208001209A
:10248000A0700102A1800C347F1E7F1C2346641CB7
:10249000002004E0401C04F8012BC0B27F1C3A78F5
:1024A0002E2A01D0002AF5D1187038780028ECD1F6
:1024B00004F8019B61F30F0661F31F46266068680C
:1024C000201A001D81B2284600F092FF5C4C352294
:1024D0004146606804F005FF35234246294660689E
:1024E00004F0E8FE0446284600F050FE01E04FF0FC
:1024F000FF342046BDE8F08770B50546C0EBC0004C
:10250000504900EB800001EBC004042D06D356A314
:1025100040F2812280A166A007F03EF920780028D1
:1025200042D0C5EBC502474B02EB820203EBC2036C
:10253000002601210C3301280CD0022811D00328D9
:102540003FD0BDE8704048A340F2C52279A158A011
:1025500007F022B9022020706670A1703046E67044
:102560000DE0A078401E10F0FF00A0701CD1E078B4
:10257000401CC0B2E070042806D0A07060782A46E3
:10258000BDE8704019463FE760780246401C0228CB
:102590000BD22B4D0C3505EB8202151D05D0526870
:1025A0001AB16070A170E67070BDD4F8105125B1F9
:1025B00000211846D4F81421A8472670C4F81061E9
:1025C00070BDA068401EA060F7D070BD1C4810B55B
:1025D0004068002807D000242046FFF78DFF641CC8
:1025E000E4B2042CF8D310BD2DE9F0470546144899
:1025F0000E4690464068994640B13EB135B12878C4
:1026000020B1284607F074F8FF2802D96FF00D00BA
:1026100070E7284605F05DFC411C0ED1094F0024EF
:10262000C4EBC40000EB800017F83010032905D17B
:1026300007EBC0010C3128468CE097E08DE00000EC
:102640005400002060030020803A0900C3070020E6
:102650003230382E36372E3232322E3232320000BD
:10266000109C00005D2200002E2E5C2E2E5C2E2E73
:102670005C546869726450617274795C6C776970DB
:102680002D312E342E315C7372635C636F72655C26
:10269000646E732E63000000646E7320736572763F
:1026A0006572206F7574206F6620617272617900A7
:1026B000417373657274696F6E20222573222066E0
:1026C00061696C6564206174206C696E65202564A5
:1026D00020696E2025730A00646E7320736572761C
:1026E000657220686173206E6F20495020616464B8
:1026F0007265737320736574000000007062756604
:10270000206D75737420626520696E206F6E652080
:102710007069656365000000617272617920696E9D
:10272000646578206F7574206F6620626F756E64C3
:1027300073000000756E6B6E6F776E20646E735F52
:102740007461626C6520656E747279207374617453
:10275000653A000006F0D4FF58B1641CE4B2042CC2
:10276000FFF45EAF4FF0FF30411C0BD03060002013
:10277000C0E6C4EBC40000EB800007EBC000D0F85B
:102780000C01F1E74A4641462846BDE8F04700F013
:1027900011B8032210F8011BB2EB911F08D002E020
:1027A000401C491EC9B20029FAD101780029F1D193
:1027B000401C70472DE9F047DFF8A08081460020DB
:1027C000DFF89CC098F8006007460446C4EBC403D9
:1027D00003EB83030CEBC3052B785BB1032B05D113
:1027E0002B79F31ABB4201DDDFB22046641CE4B250
:1027F000042CEBD3042C0FD1042807D2C0EBC00368
:1028000003EB83031CF83340032C02D04FF0FF305E
:1028100070E604460CEBC305012028702E71761C6F
:1028200088F80060C5E94412484606F061FFFF28B9
:1028300004D2484606F05CFF064600E0FF2632461A
:10284000494605F10C0006F02EFFA9190020087377
:102850002046FFF751FE6FF004004BE654000020C5
:102860006003002070B5CA4D04462868844205D232
:10287000C8A3F122D3A1D9A006F08EFF68688442D4
:1028800005D3C4A3F222DFA1D4A006F085FF2079EE
:1028900028B1C0A3F322E2A1D0A006F07DFF2088DA
:1028A000B0F5804F05D9BBA3F622E4A1CBA006F07A
:1028B00073FF20882968084484420ED0027962B9E7
:1028C0006A68904209D0AA68824200D1AC6002884E
:1028D00022800388621A881C1A5260880844A04229
:1028E0000CD00279002A09D1AA68A24200D1A860BE
:1028F000228802802288401A891C505270BD10B56F
:10290000D948A34A20F003004FF48043106000210F
:1029100003804180017100F58041012451600C71F8
:102920000B804B80906010BD70B5040030D0A007C4
:1029300006D098A34FF4A072CCA1A8A006F02CFF5B
:10294000934D2868844202D36868844206D391A3D9
:102950004FF4A172CEA1A1A006F01EFF2868844208
:1029600016D36868844213D2083C207930B989A311
:1029700040F25312CCA199A006F00EFF0020207166
:10298000A868844200D2AC602046BDE8704069E788
:1029900070BD2DE9F0470746C91C21F0030084B241
:1029A0004FF4804A0C2C01D20C2401E0544528D865
:1029B000774E3068874202D37068874206D375A38A
:1029C0004FF4C372BDA185A006F0E6FE30688742D1
:1029D0003BD371688F4238D2A7F10805B146281A57
:1029E00086B22888801B08381FFA80F8444506D92B
:1029F00068A34FF4CC72B7A178A006F0CDFE444591
:102A000002D90020BDE8F0871FD02988D9F800003E
:102A10004B4601444FF000090A79C2B104F1140198
:102A2000414512D8311908318AB29C688118A142F7
:102A300000D2996081F804902B880B804E802A8008
:102A40000988514501D0801C0A523846DAE73444DF
:102A50000834D3F808C00A88A4B28C4501D1011902
:102A60009960011981F804900A804E802C800988B1
:102A70005145EAD0801C0C52E7E72DE9F0470028C9
:102A8000C0D0C01C20F0030085B24FF480480C2D4C
:102A900001D20C2501E045456BD83D4A9146966828
:102AA0001168C5F58042701A80B260E00C18237975
:102AB000EBBB23881B1A083BAB4257D322884FF04D
:102AC000010C131A083B05F11402934211D3421969
:102AD000083293B2CA1800271771278817805080D0
:102AE000238084F804C01088404504D08A1C835297
:102AF00001E084F804C0B44216D125484A46406833
:102B000001E033885E1833790BB18642F9D1C9F8F8
:102B10000860864208D0307930B11EA340F26222AC
:102B200074A12EA006F038FE6019083000E01DE008
:102B3000D9F80410884206D916A340F2662274A17F
:102B400026A006F029FEA0070DD012A34FF41A729A
:102B50007BA122A006F020FE0EA340F26A2284A1EF
:102B60001EA006F019FE04F108004BE7085A824245
:102B70009CDC002046E770B500FB01F5A8B2FFF72A
:102B80007CFF040002D0294606F0A6FD204670BD59
:102B9000680000202E2E5C2E2E5C2E2E5C54686960
:102BA000726450617274795C6C7769702D312E3467
:102BB0002E315C7372635C636F72655C6D656D2E44
:102BC00063000000706C75675F686F6C65733A2016
:102BD0006D656D203E3D2072616D0000417373652F
:102BE0007274696F6E2022257322206661696C659C
:102BF00064206174206C696E6520256420696E20F4
:102C000025730A00706C75675F686F6C65733A2096
:102C10006D656D203C2072616D5F656E6400000023
:102C2000706C75675F686F6C65733A206D656D2DAC
:102C30003E75736564203D3D20300000706C756703
:102C40005F686F6C65733A206D656D2D3E6E6578BB
:102C500074203C3D204D454D5F53495A455F414CE2
:102C600049474E4544000000C60900206D656D5F70
:102C7000667265653A2073616E6974792063686570
:102C8000636B20616C69676E6D656E740000000097
:102C90006D656D5F667265653A206C6567616C2075
:102CA0006D656D6F727900006D656D5F667265654B
:102CB0003A206D656D2D3E75736564006D656D5FC1
:102CC0007472696D3A206C6567616C206D656D6F1B
:102CD000727900006D656D5F7472696D2063616E5D
:102CE000206F6E6C7920736872696E6B206D656DF4
:102CF0006F7279006D656D5F6D616C6C6F633A200A
:102D0000216C667265652D3E757365640000000078
:102D10006D656D5F6D616C6C6F633A20616C6C6F9B
:102D20006361746564206D656D6F7279206E6F7478
:102D30002061626F76652072616D5F656E642E0042
:102D40006D656D5F6D616C6C6F633A20616C6C6F6B
:102D50006361746564206D656D6F72792070726F48
:102D60007065726C7920616C69676E65642E000015
:102D70006D656D5F6D616C6C6F633A2073616E6938
:102D8000747920636865636B20616C69676E6D653B
:102D90006E740000F0B50020401C80B20728FBD301
:102DA0002A482A4C20F003010020294D07461F3CE9
:102DB00005F10E0644F82070002209E054F8203096
:102DC0000B6044F8201035F81030521C194492B2B0
:102DD00036F810309342F1D8401C80B20728E9D36E
:102DE000F0BD10B5072808D31AA34FF4C77225A168
:102DF0002CA006F0D1FC002010BD14491F3951F859
:102E000020405CB1226841F82020A00706D011A321
:102E100040F29F122DA123A006F0BEFC204610BD5B
:102E200070B505460C000FD0A00706D009A340F2EC
:102E3000BB122FA11BA006F0AFFC04481F3850F8AE
:102E40002510216040F8254070BD0000F7490020A2
:102E5000469B00002E2E5C2E2E5C2E2E5C54686944
:102E6000726450617274795C6C7769702D312E34A4
:102E70002E315C7372635C636F72655C6D656D703F
:102E80002E6300006D656D705F6D616C6C6F633AF1
:102E90002074797065203C204D454D505F4D415860
:102EA00000000000417373657274696F6E20222503
:102EB0007322206661696C6564206174206C696EA0
:102EC0006520256420696E2025730A006D656D708C
:102ED0005F6D616C6C6F633A206D656D7020707210
:102EE0006F7065726C7920616C69676E6564000053
:102EF0006D656D705F667265653A206D656D2070F9
:102F0000726F7065726C7920616C69676E656400C0
:102F1000704701B10968C160704701B109688160FB
:102F2000704770B505460C0027D020686968884254
:102F30001ED07748006809E001686A68914204D1B0
:102F4000C66801F031FC304600E0C0680028F3D1CB
:102F50007048006809E007D0016829B16A689142A9
:102F600002D144B121680160C0680028F3D124B1C6
:102F70002068686070BD0021F5E70020F9E770B5B2
:102F8000064614461D46FFF7CCFF21463046FFF7A4
:102F9000C4FF29463046BDE87040BAE72DE9F04746
:102FA00004462DED028B0E46DDE90A759DED0C8A77
:102FB000904699462DB958A38F2263A168A006F0C8
:102FC000EBFB00206060A060E06084F82D00C4E9A5
:102FD00007706D4F4B464246387884F83000401CED
:102FE000387084ED048A31462046FFF7C8FF20463A
:102FF000A84720B10020BDEC028BBDE8F0877868BF
:10300000206020467C60F6E75F498860704790F852
:103010002D10CA0707D021F0010180F82D10890674
:1030200001D505F03DBC704710B5040019D094F8E7
:103030002D00C00702D02046FFF7E9FF524A506832
:10304000A04210D12068506006E00168A14209D179
:1030500021680160002804D09068A04201D10020BE
:10306000906010BD08460028EFD110BD10B50100DA
:1030700005D088783038C2B24348406810E000205C
:1030800010BD90F83030934209D10B7890F82E4063
:10309000A34204D14B7890F82F40A342F0D00068AF
:1030A0000028EED110BD90F82D10CA070AD141F0CA
:1030B000010180F82D10CA0604D5890602D5011D2C
:1030C00005F0CDBD704710B5044690F82D00C1063F
:1030D00014D440F0100084F82D00206A10B120466E
:1030E000FEF7BBFF94F82D00C10707D0800605D579
:1030F000211D2046BDE8104005F0B1BD10BD90F87F
:103100002D10CA0603D521F0100180F82D1070474C
:1031100098000020940000202E2E5C2E2E5C2E2E77
:103120005C546869726450617274795C6C77697020
:103130002D312E342E315C7372635C636F72655C6B
:103140006E657469662E63004E6F20696E69742027
:1031500066756E6374696F6E20676976656E0000D0
:10316000417373657274696F6E2022257322206625
:1031700061696C6564206174206C696E65202564EA
:1031800020696E2025730A00740000202DE9F041AB
:10319000040014D0207B60B101280AD0022808D096
:1031A000032806D0E4A340F27B22EFA1F4A006F0AE
:1031B000F3FA002540F28A27E08950B10FE0DEA340
:1031C00040F27122F8A1EEA006F0E6FA0020BDE878
:1031D000F081D9A33A46F7A1E9A006F0DDFAE0892B
:1031E000401E0004000CE0810ED1207B26680328DD
:1031F0000CD001280DD002280BD02046FFF794FBFD
:103200006D1CEDB23400D7D12846E0E721460620F8
:1032100001E021460520FFF703FEF1E72DE9F05F0D
:103220000E46904648B1012809D0022809D003284B
:1032300009D0C1A3E822E5A11AE0382504E024253D
:1032400002E0102500E000254FF0010B4FF0000ACE
:10325000B8F1000F7ED0B8F1010F7CD0B8F1020FA9
:1032600079D0B8F1030F07D0B3A34FF4AA72DEA14F
:10327000C3A006F091FAB9E00620FFF7B2FD040002
:103280006AD060191B3084F80C8020F00300C4E978
:1032900000A0800705D0A8A3FA22DAA1B8A006F002
:1032A0007BFAED1C25F00301C1F5846726813046C9
:1032B000B74200DC384680B26081616804F58769F6
:1032C0000844484506D99CA34FF48072D9A1ACA00C
:1032D00006F062FA002F06DC97A340F20312E2A187
:1032E000A7A006F059FAA4F80EB060892746361A4E
:1032F0003FE00620FFF775FD05003DD085F80C8006
:1033000085F80DA0C5F800A04FF6FF703D6086421D
:1033100006DB89A34FF48F72E0A199A006F03CFA76
:10332000B0B24FF484612881884200D2014669819D
:1033300005F118006860800706D07FA340F22312D1
:10334000DBA18FA006F028FA61896068084448452F
:103350000AD902E014E035E046E077A340F22512F6
:10336000B4A187A006F018FAA5F80EB068892F4618
:10337000361A002EBDDC32E02046FFF707FF35E0AD
:1033800005F11B0020F00301F01C20F003000844AD
:1033900080B2FFF772FB040026D060191B3020F0CA
:1033A0000300606026816681C4F800A084F80CA048
:1033B000800714D060A34FF49F72C9A170A006F0DB
:1033C000EBF90CE00520FFF70CFD04000ED0C4F86B
:1033D00004A026816681C4F800A084F80C80A4F8BB
:1033E0000EB084F80DA02046BDE8F09F0020FBE75A
:1033F0002DE9F04704000D4606D14FA34FF4DA72D1
:10340000C2A15FA006F0C8F9207B03280BD00128D9
:1034100009D040B1022806D047A340F2B512C1A19D
:1034200057A006F0B9F92089A8423DD92E1A4FF6C7
:10343000FF774FF4E6784FF4E87915E0281A85B263
:10344000BE4205DB3CA34246BDA14DA006F0A4F957
:10345000208910FA86F0208124682CB936A34A46C8
:10346000BCA147A006F098F96089A842E6D3207B6A
:1034700090B96089A8420FD06068001B284481B2CF
:103480002046FFF786FA040006D12BA34FF4ED7215
:10349000B6A13BA006F080F965812581206808B1BE
:1034A000FFF774FE00202060BDE8F08770B50400CF
:1034B0000D4606D120A340F205223BA130A006F024
:1034C0006BF965B15CB1002D0BDA684281B260899D
:1034D000884207D218A340F20D22ABA10FE00020D2
:1034E00070BDA9B2207B626868B103280BD00228A6
:1034F00011D001280FD010A340F23B22AAA120A096
:1035000006F04AF915E0501B04F11801606088428A
:1035100008D262600DE0002D0BDA6089884208D382
:10352000501B606060892844608120892844208184
:10353000D5E7012070BD00002E2E5C2E2E5C2E2EB5
:103540005C546869726450617274795C6C776970FC
:103550002D312E342E315C7372635C636F72655C47
:10356000706275662E630000706275665F667265D4
:10357000653A2073616E6520747970650000000003
:10358000417373657274696F6E2022257322206601
:1035900061696C6564206174206C696E65202564C6
:1035A00020696E2025730A007020213D204E554C65
:1035B0004C000000706275665F667265653A207047
:1035C0002D3E726566203E203000000070627566F8
:1035D0005F616C6C6F633A20626164207062756633
:1035E000206C617965720000706275665F616C6C59
:1035F0006F633A206572726F6E656F7573207479B0
:1036000070650000706275665F616C6C6F633A2074
:103610007062756620702D3E7061796C6F616420F8
:1036200070726F7065726C7920616C69676E656429
:1036300000000000636865636B20702D3E70617947
:103640006C6F6164202B20702D3E6C656E20646F62
:103650006573206E6F74206F766572666C6F77206D
:103660007062756600000000504255465F504F4F33
:103670004C5F42554653495A45206D75737420621C
:103680006520626967676572207468616E204D45C8
:103690004D5F414C49474E4D454E540072656D5F3C
:1036A0006C656E203C206D61785F7531365F74000B
:1036B000706275665F616C6C6F633A2070627566EC
:1036C00020712D3E7061796C6F61642070726F7033
:1036D00065726C7920616C69676E6564000000003A
:1036E000706275665F616C6C6F633A2070627566BC
:1036F0002D3E7061796C6F61642070726F706572BD
:103700006C7920616C69676E656400007062756633
:103710005F7265616C6C6F633A207020213D204EB2
:10372000554C4C00706275665F7265616C6C6F63BE
:103730003A2073616E6520702D3E747970650000CB
:1037400067726F77203C206D61785F7531365F74EA
:1037500000000000706275665F7265616C6C6F637B
:103760003A207120213D204E554C4C006D656D5F17
:103770007472696D2072657475726E656420712053
:103780003D3D204E554C4C00696E6372656D656E13
:10379000745F6D61676E6974756465203C3D20706F
:1037A0002D3E6C656E00000062616420706275667B
:1037B0002074797065000000002102E0491C006857
:1037C000C9B20028FAD108467047002802D0C18942
:1037D000491CC181704770B50D4600B155B9AFF2B3
:1037E000A82340F2ED22F6A1AFF26C20BDE87040B4
:1037F00005F0D2BF0446006820B121892A8911440E
:103800002181F7E720896189884213D0AFF2D8235C
:1038100040F2F622F8A1AFF2982005F0BDFF206833
:1038200040B1AFF2EC2340F2F722FFA1AFF2B0209B
:1038300005F0B2FF2089298908442081256070BDE8
:1038400010B50C46FFF7C7FF2046BDE81040BCE7A7
:103850002DE9F0410126056804460027CDB12089F5
:103860006189401A2989884208D0AFF234334FF475
:103870004B72F1A1AFF2F82005F08EFF208961892B
:10388000401A28812760608920812846FFF77EFC46
:10389000064620896189884208D0AFF2643340F23D
:1038A0003D32EEA1AFF2283005F076FF3846002E0B
:1038B00000D128468BE42DE9F0474FF000060500C3
:1038C0000C4637466FF00D0904D01CB128892189B8
:1038D000884205D2AFF2A0334FF45772E5A14EE013
:1038E0006FF0050A68896189801BC91B884202DB69
:1038F0001FFA81F801E01FFA80F860684246C1199A
:103900006868304405F0CFFE06EB080086B207EB8E
:10391000080087B26889B04208D2AFF2E43340F2BF
:103920006D32E0A1AFF2A83005F036FF6089B842F1
:1039300008D2AFF2FC3340F26E32E0A1AFF2C030F9
:1039400005F02AFF6089B84201D8246800276889F9
:10395000B04202D12D6800265DB1B4B160892189E1
:10396000884212D1206880B1AFF2344340F27D32F8
:1039700016E0F4B1AFF240434FF45E72D6A1AFF25D
:10398000004005F009FF48468EE585B16889298920
:1039900088420CD1286850B1AFF2644340F28232C1
:1039A000D1A1AFF2244005F0F7FE50467CE5002C93
:1039B00098D1002078E52DE9F047894616464FF06A
:1039C000000828B1B9F1000F08D0002704462EE006
:1039D000AFF29C4340F29D32CEA104E0AFF2A84387
:1039E00040F29E32D3A1AFF2684005F0D5FE002030
:1039F0005AE52BB16089984202D8181A83B215E0B3
:103A00006089C01A85B2B54200D9354660682A4639
:103A1000C11809EB070005F046FE08EB05001FFA88
:103A200080F8781987B2701B86B2002324680EB123
:103A3000002CDED1404637E52DE9F0478946904617
:103A40001646002740B1B9F1000F0BD0018941455E
:103A500012D26FF00D0027E5AFF2245340F2CD32C1
:103A6000BDA104E0AFF2305340F2CE32C0A1AFF2BC
:103A7000F04005F091FE26E0044640F2D63A18E008
:103A80003CB9AFF24C535246C0A1AFF20C5005F016
:103A900083FE60893546B04200D2054609EB070136
:103AA0002A46606805F0FFFD701B86B2781924680D
:103AB00087B2002EE4D1474505D0AFF2845340F2DF
:103AC000E132B8A1D3E70020EEE470B50446084621
:103AD0002168B9B121890022FFF7A0FB050011D0B0
:103AE0002146FFF7E8FE40B1AFF2B45340F2FF3297
:103AF000B2A1AFF2745005F04FFE2046FFF746FB2F
:103B0000284670BD204670BD02E0891A006889B25F
:103B1000002804D042898A42F7D94068405C704747
:103B2000F0B506460D46174602E0281A366885B2FB
:103B3000AEB17089A842F8D900240CE0281981B2EE
:103B40003046FFF7E1FF395D04F10104884201D0FE
:103B5000A0B2F0BDA4B29C42F0D30020F0BD4FF65D
:103B6000FF70F0BDF0B5074600898C46811A8DB212
:103B7000D118164688420CD31C4608E033466246EC
:103B800021463846FFF7CCFF30B1204484B2AC4226
:103B9000F4D94FF6FF70F0BD2046F0BD70B5054674
:103BA0000C004FF6FF7609D0207838B12889B04252
:103BB00004D0084605F09CFDB04209E109E100008F
:103BC000286820213D204E554C4C292026262028AF
:103BD0007420213D204E554C4C29202870726F676F
:103BE00072616D6D65722076696F6C6174657320AA
:103BF0004150492900000000702D3E746F745F6CC5
:103C0000656E203D3D20702D3E6C656E20286F66F0
:103C1000206C617374207062756620696E20636821
:103C200061696E2900000000702D3E6E6578742079
:103C30003D3D204E554C4C00702D3E746F745F6CB2
:103C4000656E203D3D20702D3E6C656E202B2071F1
:103C50002D3E746F745F6C656E000000702D3E74B5
:103C60006F745F6C656E203D3D20702D3E6C656EFF
:103C700000000000706275665F636F70793A2074AF
:103C80006172676574206E6F742062696720656E6B
:103C90006F75676820746F20686F6C6420736F7530
:103CA000726365006F66667365745F746F203C3D78
:103CB00020705F746F2D3E6C656E00006F666673DA
:103CC00065745F66726F6D203C3D20705F66726F39
:103CD0006D2D3E6C656E0000705F746F20213D207D
:103CE0004E554C4C00000000706275665F636F704B
:103CF00079282920646F6573206E6F7420616C6C65
:103D00006F77207061636B6574207175657565737D
:103D1000210A0000706275665F636F70795F706181
:103D2000727469616C3A20696E76616C69642062B4
:103D300075660000706275665F636F70795F7061B1
:103D4000727469616C3A20696E76616C6964206492
:103D50006174617074720000706275665F74616B8B
:103D6000653A20696E76616C696420627566000050
:103D7000706275665F74616B653A20696E76616C1E
:103D800069642064617461707472000070627566A9
:103D90005F74616B653A20696E76616C696420704E
:103DA00062756600646964206E6F7420636F707959
:103DB00020616C6C20646174610000007062756643
:103DC0005F636F7079206661696C65640000000054
:103DD00001D3304670BD82B221462846BDE870400E
:103DE0000023BFE6704710B5040009D0606808B131
:103DF000FFF7CCF92146BDE810400320FFF710B8CB
:103E000010BD10B503E00468FFF7EDFF2046002861
:103E1000F9D110BD70B50446007E002816D00A28DE
:103E200014D0012812D0606F002510B1FFF7AEF951
:103E300065674FF0FF30A086E06EFFF7E2FF206F6E
:103E4000FFF7DFFFE5662567A4F86A5070BD2DE92E
:103E5000FC47E64F4FF4FA7A4FF00009F868401C2F
:103E6000F860B878401CB8700026BC6929E1207E53
:103E700030B9DFA340F22A32E9A1F4A005F08CFCAE
:103E8000207E012806D1DAA340F22B32F9A1EFA05F
:103E900005F082FC207E0A2806D1D5A34FF44B7290
:103EA000FFA1EAA005F078FC94F82110B8788142CF
:103EB00001D1E46805E184F821000025217EA846AF
:103EC000022903D194F8460006281BD094F8463006
:103ED0000C2B19D094F89100C0B194F89010FC4AC2
:103EE000491CC9B284F89010825C914241D384F895
:103EF0009090072802D2401C84F89100204602F0DE
:103F0000BDFF36E0012542E0012532E0B4F934007E
:103F1000002801DB401CA086206F50B3B4F93400A8
:103F2000B4F94420904224DB02290AD0B4F84200BC
:103F3000B4F9401000EBE100E649C95C8840A4F800
:103F40004400A4F83490B4F84C10B4F860008142F6
:103F500000D208464108A4F84E10E08EB1EB400FA5
:103F600002D24100A4F84E10A4F84C00204602F002
:103F7000F5FE207E06280AD1A07FC00607D5606A1C
:103F8000F968081A282802D905F10105EDB2207A4E
:103F9000000728D5207E042801D0072823D1CE4948
:103FA000D4F88C00626A0144B1FBFAF1FB689B1AF9
:103FB000994204D26D1CEDB24FF0010813E094F861
:103FC000921042F29F4211FB02F100EBC100B0FBE4
:103FD000FAF0984207D2204602F029FF94F89200A6
:103FE000401C84F89200207E032802D0092808D0C3
:103FF0000CE0606AF968081A282807D96D1CEDB230
:1040000004E0606AF968081AF028F7D8EDB3204692
:10401000FFF700FFB8695EB1844206D174A340F295
:10402000BA32AEA189A005F0B7FBE068F0600AE003
:10403000A04206D06EA340F2BE32B3A183A005F029
:10404000ABFBE068B861B8F1000F09D0A38B628BBD
:10405000CDE90023231D2246A16A206D02F02CFE2B
:104060002146D4F81080D4F88850E4680120FEF787
:10407000D7FE87F8009025B36FF009014046A847A6
:10408000387800287FF4F0AE1BE0FFE72646E468AE
:10409000F07F401CC0B2F07796F82010884210D311
:1040A00086F81F9087F80090D6F8842032B1314608
:1040B0003069904739780029E4D110B9304602F0D0
:1040C00020FD002C7FF4D3AE0025FC6932E0207E79
:1040D0000A2806D046A340F2EE3296A15BA005F076
:1040E0005BFB606AF968081AF02821D92046FFF7BF
:1040F00091FEF8695DB1844206D13DA340F2FE32E3
:1041000098A152A005F048FBE068E8600AE0A042F0
:1041100006D037A340F202429CA14CA005F03CFB24
:10412000E068F8612146E4680120FEF779FE01E0CD
:104130002546E468002CCAD1BDE8FC8770B502466C
:1041400000680C46884202D1C06810600BE0274925
:1041500006E0C068A04203D1096AE068C86002E0D6
:1041600008620028F5D100252046E560FFF752FEE1
:10417000207E0A280DD001281DD0A07FC10708D0BD
:1041800040F00200A077204602F0BBFC207E012810
:1041900011D0E06E30B116A340F2116285A12BA0C0
:1041A00005F0FAFA206F30B111A340F2126287A134
:1041B00026A005F0F1FA257670BD2DE9FC470446EE
:1041C000007E0A4E4FF00009012769B1042801D092
:1041D000072809D1616F19B9A18DB1F57A6F03D0A4
:1041E000A07FC00601D4FFE035E105E1800000209A
:1041F0002E2E5C2E2E5C2E2E5C54686972645061EB
:104200007274795C6C7769702D312E342E315C7349
:1042100072635C636F72655C7463702E6300000090
:104220007463705F736C6F77746D723A206163743E
:10423000697665207063622D3E7374617465202118
:104240003D20434C4F5345440A00000041737365C1
:104250007274696F6E2022257322206661696C6515
:1042600064206174206C696E6520256420696E206D
:1042700025730A007463705F736C6F77746D723AA4
:1042800020616374697665207063622D3E7374618A
:10429000746520213D204C495354454E0A000000CE
:1042A0007463705F736C6F77746D723A20616374BE
:1042B000697665207063622D3E7374617465202198
:1042C0003D2054494D452D574149540A00000000F6
:1042D000639B0000989B0000B84C0A007463705FF9
:1042E000736C6F77746D723A206D6964646C6520CD
:1042F00074637020213D207463705F61637469761C
:10430000655F7063627300007463705F736C6F77D6
:10431000746D723A20666972737420706362203D16
:104320003D207463705F6163746976655F7063627A
:10433000730000007463705F736C6F77746D723A12
:104340002054494D452D57414954207063622D3EFC
:104350007374617465203D3D2054494D452D57418E
:10436000495400007463705F736C6F77746D723AB8
:10437000206D6964646C652074637020213D207435
:1043800063705F74775F7063627300007463705F63
:10439000736C6F77746D723A2066697273742070F3
:1043A0006362203D3D207463705F74775F70636269
:1043B00073000000756E73656E74207365676D65BC
:1043C0006E7473206C65616B696E6700756E6163F6
:1043D0006B6564207365676D656E7473206C6561D1
:1043E0006B696E6700000000AFF2FC13B222FBA104
:1043F000AFF2A81005F0D0F9A38B628BCDE90023B2
:10440000231D2246A16A206D02F056FC2046FFF7CC
:1044100001FDB069A04202D1C068B06107E030621E
:1044200028B1C068A042FAD1316AE068C860C4F817
:104430000C903770207E042805D021460120FEF71D
:10444000EFFC002078E60A202076F069E060F46155
:1044500002F08DFDF5E74FF0050808283FD2DFE8B0
:1044600000F0041C242C2C3E3E34608B002578B1D7
:104470003069A04202D1C068306107E0306228B1E3
:10448000C068A042FAD1316AE068C860C4F80C90F4
:1044900021460120FEF7C4FC26E000252146D6482F
:1044A000FFF74CFE21460220F4E7D34800252146C1
:1044B000001DFFF743FE3770EAE7204601F04EFE8D
:1044C000050009D184F8188006E0204601F046FE78
:1044D000050001D10920207634B115B104E0002592
:1044E00002E0204602F00DFB284625E6017E012968
:1044F00003D0817F41F01001817701215DE670B525
:104500000446B0F82CC0826AE58E006B4FF4FA6363
:1045100002EB0C019D4200D82B460344CB1A03D476
:10452000A4F82EC0081A70BD111A002902DD00205F
:10453000E0850DE0851AB5F5803F08D3AFF2503322
:1045400040F25322ADA1AFF2FC2005F025F9E5853C
:10455000002070BD70B50446007E0D46012808D1CC
:10456000AFF274334FF41A72ABA1AFF2203005F002
:1045700013F9A08D4FF6FF71081AA84208D2AFF2C6
:10458000903340F26A22AEA1AFF2403005F004F958
:10459000A08D4FF47A61284480B2A085884200D96A
:1045A000A1852046FFF7ABFFB0F57A7F08DBA07F3F
:1045B00040F00200A0772046BDE8704002F0A1BAAA
:1045C00070BD10B50846140006D02189FFF7C2FF60
:1045D0002046FEF7DBFD00E00BB1002010BDBDE87A
:1045E000104083E72DE9F041456F044600206E7BC3
:1045F0006067E76F2FB100232A4621462069B8473C
:1046000005E000232A4621461846FFF7DAFF6FF03F
:10461000090728B10A3014D065670020BDE8F08191
:10462000B106FAD5A18DB1F57A6F01D0491CA185EB
:10463000E56F25B100231A4621462069A8470A30B4
:10464000EBD13846EAE72DE9F0416B4E143EB078E5
:10465000401CB0700027B4691EE094F82110B078B7
:10466000814219D084F82100A07FC10709D040F011
:104670000200A077204602F044FAA07F20F0030059
:10468000A077E568606F30B137702046FFF7AAFF6A
:1046900030780028DED12C46002CDED1BEE710B5E4
:1046A000FFF7D1FF544914394878401C4870C007BF
:1046B00003D0BDE81040FFF7CABB10BD10B50446DB
:1046C000007E6FF00C03012815D069B1A07F40F087
:1046D0001000A0770AB1012110E0606F90B1FEF7E1
:1046E00055FD002060670DE062B1032805D0042865
:1046F00003D0072801D0184610BDC9B22046BDE836
:1047000010405AE5002010BD2DE9FC470446007E0C
:104710000E46012808D1AFF228534FF4B77251A1C9
:10472000AFF2D84005F038F8207E0A2830D0324861
:104730002146001DD4F85090D4F81080A76AD4F810
:104740008850FFF7FBFC2C49012014390870206FBA
:1047500008B1FFF756FBE06E08B1FFF752FB4EB110
:10476000A38B628BCDE90023231D224639464846A0
:1047700002F0A2FA21460120FEF752FB002D12D0D2
:1047800002B04046AC46BDE8F0476FF00901604713
:10479000194821460830FFF7D1FC2146BDE8FC4707
:1047A0000120FEF73DBBC7E40121ADE7F0B5124E95
:1047B0000024394D4FF6FF774FF4404C143E4FF430
:1047C000804EB088411CB180B84201D1A6F804C027
:1047D000B288002155F82100006869E07063622DFD
:1047E0003E666C61677320262054465F5258434CE6
:1047F0004F53454400000000940000206E65775F31
:104800007263765F616E6E5F776E64203C3D203030
:104810007866666666000000646F6E2774206361C8
:104820006C6C207463705F72656376656420666F7C
:1048300072206C697374656E2D7063627300000082
:104840007463705F7265637665643A206C656E2090
:10485000776F756C642077726170207263765F7712
:104860006E640A00646F6E27742063616C6C207440
:1048700063705F61626F72742F7463705F616261F5
:104880006E646F6E20666F72206C697374656E2D36
:104890007063627300000000A89B0000438B93428A
:1048A00005D1641CA4B274458BD30020F0BDC06850
:1048B0000028F3D1491CC9B204298BD390B2F0BDB2
:1048C0002DE9F0410546007E0C46042658B1AFF2B2
:1048D000E06340F2B712F6A1AFF2906004F05CFF23
:1048E0006FF005009AE61AB9FFF760FF020005D0E5
:1048F000F94F002157F82100006814E06FF0010023
:104900008CE6438B93420DD148B1D0F800C0BCF186
:10491000000F04D01CB123680BB19C4502D16FF08D
:1049200007007BE6C0680028EBD1491CB142E1DBFF
:1049300014B1206800B12860E8486A830169E96021
:10494000056102F014FB002068E66FF00900704773
:1049500070B50446007E50B1AFF26C734FF4037231
:10496000DFA1AFF2187004F017FF002070BD022025
:10497000FEF737FA0500F9D020692861608B68835B
:1049800001202876607E6876207A40F00200287246
:10499000A07AA872607A687220682860608B80B103
:1049A000CE490869A04202D1C068086107E00862E8
:1049B00028B1C068A042FAD1096AE068C860002046
:1049C000E06021460120FEF72BFACE486861C3481B
:1049D00014300168E960056002F0C9FA284670BD2C
:1049E00010B50446084603F003F830B1808C20B1BE
:1049F000283880B2844200D30446204610BDB7490F
:104A0000D1E902021044886070472DE9F04704465E
:104A1000007E0E46984660B1AFF62C0340F2B322FA
:104A2000B9A1AFF2D87004F0B7FE6FF00800BDE88E
:104A3000F08736B130686060A2832CB1206818B16D
:104A400008E06FF00500F2E7201D02F0D1FF20B171
:104A500040682060658B1DB106E06FF00300E6E75B
:104A6000FFF7A4FE608338B3FFF7C9FF0027A762F2
:104A70002065401EA064E0654FF47A60A085E08563
:104A80002763A4F860004FF40670E0863146FFF714
:104A9000A7FFE0864FF0010900EB8000A4F84C90DE
:104AA0004000A4F84E0002212046C4F8808001F0A6
:104AB000C7FA060003D026E06FF00100B7E7022036
:104AC000DFF81882207695B1D8F81000A04203D103
:104AD000C068C8F8100009E0C8F8200030B1C0680C
:104AE000A042F9D1D8F82010E068C860E760D8F893
:104AF0001800E060C8F8184002F039FA88F8009011
:104B0000204601F0FEFF304691E7417670472DE9DF
:104B1000F04105460120FEF764F9704F040037D1DB
:104B200000231A46FC68F86906E0416A611A994256
:104B300001D30B460246C0680028F6D11AB1012104
:104B40001046FFF7E1FD0120FEF74BF904001FD1ED
:104B50007F262346D7F80CC0B8690DE0417EA942F4
:104B600009D8B14207D8426AACEB0202A24202D392
:104B7000144603460E46C0680028EFD11BB1012140
:104B80001846FFF7C1FD0120FEF72BF9040039D0CC
:104B9000942104F0A1FD04F108044FF4FA60657457
:104BA000A4F85E004FF00003A4F860304FF47A6080
:104BB000A084E08463704FF0FF00A0704FF4067093
:104BC000E0854FF00600A087238760874FF0FF3015
:104BD000A0854FF00100A4F84400FFF710FF206506
:104BE000A06420646065F868E061B8786076E37579
:104BF000AFF2316060675048C4F8840084F88A30AE
:104C0000A4F10804204609E5402080E701617047CF
:104C100070B50446007E0D46012808D1AFF630235A
:104C200040F2725245A1AFF6DC1004F0B5FDE56725
:104C300070BD70B50446007E0D46012808D1AFF660
:104C400050234FF4B06247A1AFF6002004F0A4FD5A
:104C5000A56770BD70B50446007E0D46012808D1D9
:104C6000AFF6742340F28F5248A1AFF6202004F033
:104C700093FDC4F8885070BD4161704770B504461B
:104C8000007E0D461646012808D1AFF69C2340F25F
:104C9000AE5248A1AFF64C2004F07EFD04F1200492
:104CA0006566267070BD0C493C3951F8200070478C
:104CB0007463705F62696E643A2063616E206F6E28
:104CC0006C792062696E6420696E2073746174650A
:104CD00020434C4F53454400A89B00008000002017
:104CE0007463705F6C697374656E3A2070636220E0
:104CF000616C726561647920636F6E6E6563746563
:104D0000640000004B4900007463705F636F6E6E57
:104D10006563743A2063616E206F6E6C7920636FF7
:104D20006E6E6563742066726F6D20737461746556
:104D300020434C4F5345440000DD6D00696E7661A1
:104D40006C696420736F636B657420737461746540
:104D500020666F7220726563762063616C6C62619D
:104D6000636B0000696E76616C696420736F636BBE
:104D7000657420737461746520666F722073656E4C
:104D8000742063616C6C6261636B0000696E7661B4
:104D90006C696420736F636B6574207374617465F0
:104DA00020666F72206572722063616C6C62616351
:104DB0006B000000696E76616C696420736F636BD1
:104DC000657420737461746520666F7220706F6CF7
:104DD0006C0000002DE9F0470446007E042806D24E
:104DE000DEA34FF45872EAA1F0A004F0D5FCF94E0E
:104DF0004FF000073078C0067ED5B4F86050A06D43
:104E0000626DF16805EB000C531A0BD48A4202D193
:104E10003269821A06D43269904217D17068C0890B
:104E2000A84213D97068C289A4F86020B4F862302F
:104E3000C089834201D2A4F8620061653069A0652F
:104E400094F8910062B108B184F89170A26C306955
:104E5000811A002936DCA4F86470718841B12EE013
:104E60000028F3D184F89070012084F89100EDE7D8
:104E7000B4F86030A16D1944614520D1B4F9341003
:104E800000291CDB82421AD194F84700411CC9B2A8
:104E9000814201D984F8471094F84700032809D9C2
:104EA000B4F84C10E08E084480B2884201D9A4F8CE
:104EB0004C00D7E002D1204601F090FFD2E084F808
:104EC0004770CFE04A1E7ED4226D821A002A7ADC17
:104ED000A27F530706D522F00402A277B4F84E2031
:104EE000A4F84C2004F12804A777628BB4F9183099
:104EF00002EBE302A28300E0F0E0A187E28F11441D
:104F0000E187E777206214F8100CA4F12804042844
:104F10004BD3B4F84C00B4F84E108842E18E04D262
:104F2000014489B2814207D83FE0494391FBF0F147
:104F3000014489B2884238D2A4F84C1035E0286880
:104F400020676868FEF738FCB4F86810884206D914
:104F500082A34FF47F72A0A194A004F01DFCB4F8CA
:104F6000640050B128698089FBF7F6FEC00704D0C1
:104F7000B4F86400401EA4F864006868FEF71CFCE6
:104F800034F8681F081A20802846FEF72CFF34F8F2
:104F9000680950B1206F50B9E06E18BB6FA340F2A2
:104FA000074297A181A004F0F7FB206FD0B1006900
:104FB0004068FBF7D5FE0546206F00698089FBF746
:104FC000CBFE800700E011E000D001202844256FCF
:104FD000298908443169401A0028B0DD15B1A78637
:104FE000E7773FE04FF0FF30A086F9E7A4F8647060
:104FF00038E02868E06608B9A4F86A706868FEF7C7
:10500000DBFBB4F86810884206D954A340F22E4264
:1050100071A166A004F0C0FBB4F8640050B1286927
:105020008089FBF799FEC00704D0B4F86400401EE5
:10503000A4F864006868FEF7BFFB34F8681F081A1C
:1050400020802846FEF7CFFE34F8680950B1206F63
:1050500040B9E06E40B941A340F2374268A153A085
:1050600004F09AFBE06EB8B100694068FBF778FE87
:105070000546E06E00698089FBF76EFE800700D070
:1050800001202844E56E298901443069411A03D47E
:10509000216D401A0028ACDDA06BF8B1E16B3269DC
:1050A000891A1BD55E490968081AB4F94010A0EBAB
:1050B000E10000B2014409B2A4F84010002801DA6E
:1050C000404200B2B4F94220A0EBA2001044A4F880
:1050D000420000EBE100A4F84400A7637288D2B359
:1050E000207E072837D2A06AF168DFF83881A0EB6C
:1050F0000105B1466B1E2FD40A44821A521C002AA5
:105100002ADCD8F8046036B914A340F2964246A1CE
:1051100026A004F041FB47F6FF70854206DB0FA393
:1051200040F2974244A121A004F036FBD8F80400D5
:105130004189A94211DA0089A84206DA07A340F2A0
:10514000994241A119A004F027FBD8F80400008976
:10515000401B81B284E04CE1B2E08FE02E2E5C2E49
:105160002E5C2E2E5C546869726450617274795C96
:105170006C7769702D312E342E315C7372635C63F1
:105180006F72655C7463705F696E2E63000000006F
:105190007463705F726563656976653A2077726FD4
:1051A0006E6720737461746500000000417373655D
:1051B0007274696F6E2022257322206661696C65A6
:1051C00064206174206C696E6520256420696E20FE
:1051D00025730A00A40000207063622D3E736E6484
:1051E0005F71756575656C656E203E3D20706275FA
:1051F000665F636C656E286E6578742D3E7029005D
:105200007463705F726563656976653A2076616C78
:105210006964207175657565206C656E67746800DA
:105220008C000020D8710020696E7365672E702095
:10523000213D204E554C4C00696E73616E65206FA8
:1052400066667365742100007062756620746F6F06
:105250002073686F727421003181778136682D1A4E
:105260007089A842F8DB684201B23046FEF71EF9A9
:1052700090B1AFF2181340F2A64208E0694209B2B9
:10528000FEF714F940B1AFF22C1340F2AB42FDA18E
:10529000AFF2E80004F080FAA06AD9F80C50B8F830
:1052A0000830A0EB0505A3EB0503A8F80830C9F802
:1052B0000C00D8F810104860A16A401A07D593E096
:1052C000081A04D5A07F40F00200A0778CE0A08DE2
:1052D000A16A4E460A18D9F80C00821A521C002AFC
:1052E0007CDC81427AD1D8F8100045468089FBF7F2
:1052F00033FD800700D001202989084480B27080E6
:10530000A18D81423ED228698089FBF725FDC00727
:105310000ED028698089FBF71FFD00F03E00FBF7E7
:1053200019FD01462869828922F47C52114381814A
:10533000A08D288128698089FBF70EFD800702D5A2
:105340002889401E288129896868FEF751F8286954
:105350008089FBF701FD800700D0012029890844DE
:1053600080B27080A28DA16A1144F2681044401A84
:1053700008D0AFF2182340F2D742C7A1AFF2D41041
:1053800004F00AFA7088F1680144A162A18D81429B
:1053900008D2AFF2382340F21252CDA1AFF2F4108E
:1053A00004F0FAF9A08D7188401AA0852046FFF715
:1053B000A6F86868018909B170616F602869808901
:1053C000FBF7CAFCC00703D0707840F02000707073
:1053D000A07FC10703D020F0010015E004E040F0F9
:1053E0000100A077BDE8F0872046BDE8F04701F056
:1053F00034BAA06AF1680A1A05D4A28D1044081ABA
:10540000401C0028EEDDA07F40F00200E9E770B507
:10541000B74E0546706800F114048089FBF79CFCC8
:105420000521B1EB103F1BD270688089FBF794FC1B
:105430006FF0040101EB10308004020C00200DE03D
:10544000215C00290CD001290BD0022904EB0001BA
:1054500009D04978002903D0084480B29042EFD3A4
:1054600070BD401CF9E74B78042BF9D1001D904228
:10547000F6D849884FF47A7349BA994201D801B1F4
:105480000B46EB86E9E72DE9FC5F994D04464FF0AA
:1054900000082878410727D5227E022A0AD0A06A70
:1054A000E9680B1A0AD4A38D1844081A002805DCF1
:1054B0002AB10DE0206D2969884209D00CE2AFF2D3
:1054C000643340F257228BA1AFF2203004F064F92C
:1054D000687840F008006870A07F20F00100A07795
:1054E0006FF00A00BDE8FC9F800709D5207E0228E6
:1054F00006D0032804D0A07F40F00200A077EBE1A3
:10550000A07FC00602D4834800686062002084F84F
:1055100092002046FFF77BFF207EDFF8FCB1801E63
:10552000DFF8F8917E4F7F4E4FF0010A08287BD2BA
:10553000DFE800F0047BA6A5A4A6A3A22878C106F4
:1055400072D5800764D5206F00694068FBF708FCBE
:105550002969401C884258D104F12804E08F00F1E9
:105560000100E087E868024600F101002060216246
:10557000A0606868A2F10102C1892187C0896087A3
:105580004FF00400E26204F8100CE089A4F1280452
:1055900004F10401FFF724FA00EB8001E0864900E2
:1055A000A4F84E10B4F84C10012900D14000A4F822
:1055B0004C00B4F8680040B9AFF260434FF4237276
:1055C00059A1AFF2184004F0E7F8B4F86800401EA3
:1055D000A4F86800206F01682167FEF704FC206FC3
:1055E00078B10020A08684F84600D4F8803023B13A
:1055F0000022214620699847804618F10A0839D0D0
:1056000079E74FF0FF30A086EFE72878C0060BD58A
:10561000686803884288CDE900236988E868484BB8
:105620000144484A2869C8E0C9E02878C10622D563
:10563000A16C2869A0EB0101491E22D4216D411AF9
:1056400000291EDC04202076606950B9AFF2F443D3
:1056500040F2B3223CA1AFF2AC4004F09DF8606987
:1056600030B1D4E9040300222146984708B97FE00D
:1056700074E075E079E0A3E020E1FBE0E4E0AEE077
:10568000A9E090E0706275665F686561646572208C
:105690006661696C656400007463705F7265636560
:1056A0006976653A207365676D656E74206E6F74F8
:1056B000207472696D6D656420636F7272656374C6
:1056C0006C7920746F207263765F776E640A0000D5
:1056D0007463705F726563656976653A20746370A0
:1056E0006C656E203E207263765F776E640A000000
:1056F000A40000207463705F696E7075743A207046
:1057000063622D3E737461746520213D20434C4FCC
:10571000534544008C000020800000209C000020A5
:1057200098000020A00000207063622D3E736E641C
:105730005F71756575656C656E203E2030000000F8
:10574000D4000020D80000207063622D3E616363A6
:1057500065707420213D204E554C4C006FF00D00BB
:105760000A3002D02046FFF71FF86FF00900B9E6B3
:10577000B4F84C602046FFF72DFBB4F8640010B17C
:10578000401EA4F86400E08E012E01D14FEA4000D3
:10579000A4F84C006878800611D5A07F40F0020084
:1057A000A07707204EE069680B884A88CDE900237E
:1057B0006A88E968F94B1144F94A01F07DFA8BE0F7
:1057C000800707D5A06AE968401E884202D12046BA
:1057D00001F0DAFA80E02046FFF7FCFADAE720462B
:1057E000FFF7F8FA68788006002828784FEAC0604A
:1057F00021DA002819DA206D2969884215D1A07FA5
:1058000040F00200A0772046FEF704FB3868A04273
:1058100002D1C068386045E03060F0B3C068A04293
:10582000FAD13168E068C8603CE0A07F40F0020037
:10583000A077082006E000284EDA206D296988420A
:105840004AD10620207647E02046FFF7C3FA687861
:10585000800641D5A07F40F00200A0772046FEF7E9
:10586000D9FA3868A042D4D03060B0B1C068A04244
:10587000FAD1D6E72046FFF7ADFA2878C0062BD537
:10588000206D2969884227D12046FEF7C3FA38687F
:10589000A042BED0306000B100E003E0C068A0428A
:1058A000F8D1BEE78BF800A00A202076D9F80010C6
:1058B000E160C9F8004001F05AFB0DE02046FFF717
:1058C00089FA2878C00607D5206D2969884203D156
:1058D000687840F010006870002003E67CB5B14E97
:1058E0000546307841075FD4C1060DD5706803883E
:1058F0004288CDE900237188F068A84B0144A84A8A
:10590000306901F0D9F94FE080074DD5687EFFF787
:10591000FEF8040040D0A24800682060688B6083D5
:105920009E480068606070680188A1830321217629
:10593000F1680A46491CA1622163C189A4F860107C
:10594000C089A4F86200A4F84E10521E626528694E
:10595000206168696061287A00F08C0020729248AA
:105960000168E160046001F002FB904901200870C9
:105970002046FFF74CFDE08E211DFFF731F8E08651
:105980001221204600F05CFB050008D000212046D3
:10599000FEF7BAFE28467CBD4FF0FF307CBD2046A6
:1059A000BDE87C4001F0ADB800207CBD2DE9FC5F76
:1059B0000546DFF8F08140680C46C8F80800017819
:1059C00001F00F0100EB8100C8F80400880041429B
:1059D0002846FDF76BFDE8BB288914283AD3704FA1
:1059E0002146386802F0C0F9A0BB3868C0F3031044
:1059F0000E282FD02B89009306233A466749284664
:105A000001F0F5FE30BBD8F804008089FBF7A4F95B
:105A1000000B800041422846FDF748FDD0B9D8F878
:105A200004000088FBF798F90146D8F804000180CB
:105A30004088FBF791F90146D8F80400418040689E
:105A4000FBF78EF90146D8F804004160C8F80C1045
:105A5000806800E016E2FBF783F9D8F8041088604C
:105A6000C8F81000C889FBF777F90146D8F8040098
:105A7000C1818089FBF770F900F03F0088F80000D1
:105A80002989800700D00120DFF81CB10844A8F85C
:105A900002000026DFF804A1C146DBF8004054E014
:105AA000207E38B9AFF64C13AB2241A1AFF60410FB
:105AB00003F072FE207E0A2807D1AFF66013AC22F5
:105AC00045A1AFF6181003F067FE207E012807D12C
:105AD000AFF67813AD224BA1AFF6301003F05CFEA9
